:020000040800F2
:1000000080040020C1010008170F0008730E0008CB
:10001000150F0008CD0200082D1300080000000095
:100020000000000000000000000000005D12000859
:10003000CF02000800000000190F00085F1200083E
:10004000DB010008DB010008DB010008DB01000820
:10005000DB010008DB010008DB010008DB01000810
:10006000DB010008DB010008DB010008DB01000800
:10007000DB010008DB010008DB010008DB010008F0
:10008000DB010008DB010008DB010008DB010008E0
:10009000DB010008DB010008DB010008DB010008D0
:1000A000DB010008DB010008DB010008DB010008C0
:1000B000DB010008DB010008DB010008DB010008B0
:1000C000DB010008DB010008DB0100081D0F000850
:1000D000DB010008DB010008DB010008DB01000890
:1000E000DB010008DB010008DB010008DB01000880
:1000F000DB010008DB010008DB010008DB01000870
:10010000DB010008DB010008DB010008DB0100085F
:10011000DB010008DB010008DB010008DB0100084F
:10012000DB010008DB010008DB010008DB0100083F
:10013000DB010008DB010008DB010008DB0100082F
:10014000DB010008DB010008DB010008DB0100081F
:10015000DB010008DB010008DB010008DB0100080F
:10016000DB010008DB010008DB010008DB010008FF
:10017000DB010008DB010008DB01000800000000D3
:10018000DB010008DB010008DB010008DB010008DF
:10019000DB010008DB010008DB010008DB010008CF
:1001A000DB010008DB010008DB010008DFF80CD0F0
:1001B00000F07AF8004800476D1300088004002022
:1001C0000648804706480047FEE7FEE7FEE7FEE7F1
:1001D000FEE7FEE7FEE7FEE7FEE7FEE7D9120008CE
:1001E000AD0100082DE9F05F0546002092469B46D0
:1001F00088460646814640241BE02846414647463D
:10020000224600F041F853465A46C01A914110D395
:1002100011461846224600F028F82D1A67EB01080F
:100220004F4622460120002100F01FF817EB00097D
:100230004E41201EA4F10104DFDC484631462A4627
:100240004346BDE8F09FD2B201E000F8012B491E01
:10025000FBD270470022F6E710B513460A46044663
:100260001946FFF7F0FF204610BD202A04DB203A94
:1002700000FA02F1002070479140C2F1200320FAF9
:1002800003F3194390407047202A04DB203A21FAF7
:1002900002F00021704721FA02F3D040C2F120029F
:1002A0009140084319467047064C074D06E0E06848
:1002B00040F0010394E8070098471034AC42F6D3AD
:1002C000FFF778FFD8130008F8130008FEE770471F
:1002D00090F83510022903D0802141650120704734
:1002E000052180F835100068016821F001010160E6
:1002F0000020704770B5044600F000F90546601C08
:1003000002D004480078044400F0F8F8401BA042F2
:10031000FAD370BD040000202DE9F84FDFF890B14A
:1003200000224FF001084FF0030A4FF00F090BF1C4
:10033000040E00BF0B6808FA02F42340A3426ED1FA
:100340004D68022D01D0122D0ED1D50800EB850C81
:10035000DCF820505607F70E09FA07F6B5430E6988
:10036000BE402E43CCF82060066855000F790AFA8B
:1003700005FC07F0030726EA0C06AF403743076089
:100380004E68012E05D0022E03D0112E01D0122E60
:100390000ED18768CE6827EA0C07AE403E438660E0
:1003A0004668A6430C79C4F3001494403443446077
:1003B000C4688E6824EA0C04AE402643C6604C68CC
:1003C000E4006FD53B4C256845F4804525602468E2
:1003D00022F0030504F480440094374C2E19D6F81B
:1003E000084895072F0F09FA07F5AC43334DA8428B
:1003F00001D100252EE0324DA84201D1012529E08E
:10040000304DA84201D1022524E02F4DA84201D150
:1004100003251FE02D4DA84202D104251AE041E03A
:100420002B4DA84201D1052514E02A4DA84201D147
:1004300006250FE0284DA84201D107250AE0274DE7
:10044000A84201D1082505E0254DA84201D1092582
:1004500000E00A25BD402543C6F80858DBF80040F7
:100460005D464E689C43F60300D51C432C60DEF8C5
:10047000004075464E689C43B60300D51C432C6073
:100480000B4D08352C684E689C43F60200D51C4382
:100490002C60074D0C352C684E689C43B60200D585
:1004A0001C432C60521C102AFFF444AFBDE8F88FA7
:1004B000003C01404438024000300140000002404E
:1004C0000004024000080240000C024000100240FC
:1004D0000014024000180240001C024000200240AC
:1004E00000240240426931EA020200D1090481611C
:1004F00070470AB1816170470904FBE701488068D1
:10050000704700000400002002488168027811440E
:1005100081607047040000200B4810B5016841F469
:1005200000710160016841F480610160016841F47B
:1005300080710160032000F06FF8002000F006F8E1
:1005400000F024F8002010BD003C024070B50D4DB5
:1005500004464FF47A712878B1FBF0F00A49096833
:10056000B1FBF0F000F071FC48B9102C07D200226A
:100570002146501E00F030F800206C6070BD012054
:1005800070BD000004000020100000200A4808B5DB
:10059000016841F480410160006800F480400090EF
:1005A0000548001F016841F080510160006800F0BB
:1005B0008050009008BD000044380240002809DB4C
:1005C00000F01F02012191404009800000F1E0206D
:1005D000C0F8001170470000F0B40E4B1B680C46C9
:1005E000C3F30223C3F10705042D00D90425191D07
:1005F000072901D2002300E0DB1E012606FA05F1DF
:10060000491E214099409E40761E16403143F0BC61
:1006100000F08DBE0CED00E0064900F0070208680E
:100620004FF6FF03184040EA0220034A10430860D7
:10063000704700000CED00E00000FA052DE9F047DE
:100640000E46050065D0DFF81481D8F80000F7B237
:1006500000F00F00B04207D288F80070D8F8000010
:1006600000F00F00B04254D128683D4C810712D5EC
:10067000400703D5206840F4E05020602878000748
:1006800003D5206840F4604020602068A96820F00D
:10069000F000084320602878C0072DD030496868F2
:1006A0000839012812D0022813D0032811D0096874
:1006B000890700292DDA216821F003010143216017
:1006C000FFF71CFF814641F2883A0EE00968890372
:1006D000EFE709688901ECE7FFF710FFA0EB0901DC
:1006E000514502D90320BDE8F0872068696800F011
:1006F0000C00B0EB810FEFD1D8F80010404601F0AC
:100700000F01B14207D90770006800F00F00B04236
:1007100001D00120E7E72878400705D52068E9687F
:1007200020F4E050084320602878000706D52068B0
:10073000296920F4604040EAC100206000F016F80A
:100740002168084AC1F30311515CC840064908609A
:100750000020FFF7FBFE0020C5E70000003C024040
:1007600008380240C813000810000020154810B5D2
:10077000006810F00C02144813D01449042A0FD05A
:10078000082A0ED10F4C241F2268236802F03F0272
:100790005B0207D52068C0F38810A0FB010106E0CA
:1007A000084610BD2168C1F38811A1FB0001002398
:1007B000FFF718FD2168C1F30141491C4900B0FB56
:1007C000F1F010BD083802400024F40040787D01AB
:1007D0002DE9F84F050076D02878DFF8F8B2BE4C46
:1007E000C00749D0DBF800105846C1F38101012948
:1007F00008D00068C0F3810002280AD1201D0068DB
:10080000400206D52068800336D568680028E2D00B
:1008100032E06868B0F5803F10D0B0F5A02F2068B6
:1008200010D020F480302060206820F480202060E8
:100830006868A0B1FFF762FE06460CE0206840F44D
:100840008030F4E740F480202060F7E7FFF756FEA1
:10085000801B642873D820688003F7D50CE0FFF76D
:100860004DFE064605E000BFFFF748FE801B6428EA
:10087000F0D820688003F7D42878DFF860828007FA
:100880004FF000093ED5DBF80010584611F00C0F70
:1008900009D00068C0F3810002280BD18D48001FE9
:1008A0000068400206D42068800715D5E868012852
:1008B00009D111E0E868B8B10120C8F80000FFF7DD
:1008C0001DFE064605E002E1FFF718FE801B022828
:1008D000C0D820688007F7D52068296920F0F80083
:1008E00040EAC10020600DE0C8F80090FFF706FE66
:1008F000064604E0FFF702FE801B02281FD820688E
:100900008007F7D42878000722D5724E74486969A9
:100910006C3671B101210160FFF7F0FD074604E07C
:10092000FFF7ECFDC01B022809D830688007F7D517
:100930000EE0C0F80090FFF7E1FD074605E083E018
:10094000FFF7DCFDC01B02287ED830688007F7D493
:100950002878400768D5DFF87CA100270AF1380A1B
:10096000DAF80000C0000BD4DAF8001041F0805132
:10097000CAF80010DAF80000012700F0805000905B
:10098000584E3068C00510D4306840F48070306034
:10099000FFF7B4FD009005E0FFF7B0FD0099401AA5
:1009A000022851D83068C005F6D54A4EA868683686
:1009B00001280FD00528306810D020F001003060E9
:1009C000306820F004003060A868B8B1FFF796FDE9
:1009D00000900FE0306840F00100F4E740F00400C0
:1009E0003060F7E7FFF78AFD0099411A41F288303D
:1009F000814264D830688007F4D50EE0FFF77EFDB1
:100A0000009007E0FFF77AFD0099411A41F2883023
:100A1000814254D830688007F4D42FB1DAF800103E
:100A200021F08051CAF80010A869C0B3DBF80010AB
:100A3000C1F3810102294AD00228484607D0C8F8EC
:100A40006000FFF75BFD00E039E005463AE047460D
:100A5000C8F86000FFF752FD064604E0FFF74EFDC0
:100A6000801B02282BD820688001F7D4D5E9070124
:100A70000843A96A1C4A490802EB01416A6A41EA33
:100A80008211084395F82C1040EA01611148001FBB
:100A9000016001203866FFF731FD054605E014E0EE
:100AA000FFF72CFD401B022809D820688001F7D5EC
:100AB0000BE000BFFFF722FD401B022802D90320F4
:100AC000BDE8F88F20688001F4D40020F8E7012009
:100AD000F6E70000083802400038024000004742B4
:100AE000800E4742007000400000FFFF704700008A
:100AF00038B5016804464A688868C043430606D58D
:100B0000C30704D1D3435B0601D4216C05E08307FE
:100B100008D4D3431B0605D4616C01B02046BDE860
:100B200030400847830603D5430601D5C30551D499
:100B3000D3439B064ED443060AD494F85130032B7A
:100B400049D0636D43F004036365CB688B68009301
:100B5000830609D4636D43F0010363658B680093DA
:100B60000B6823F040030B60C00506D4606D40F0B5
:100B700008006065206880680090606D002829D0BA
:100B80002068416821F0E0014160012084F85100B3
:100B9000900701D4D00722D02068416821F00301DA
:100BA0004160114DE06C40B10565E06CFFF790FBD2
:100BB00018B1606D40F040006065A06C002809D05D
:100BC0000565A06CFFF784FB002803D0606D40F042
:100BD0004000606538BDC8688868009038BD204610
:100BE000FFF784FF38BD0000C510000870B5040091
:100BF00005D00025A56294F8510010B106E001204F
:100C000070BD84F85050204600F030F8022084F87F
:100C100051002068016821F040010160D4E9010120
:100C20000843D4E903121143084361690843218B47
:100C300001F400710843E1690843216A0843A16A8D
:100C4000084321680860A069042101EA1040616A34
:100C50000843216848602068C16921F40061C161CE
:100C60006565012084F85100002070BD10B586B084
:100C7000044614216846FFF7EDFA174920688842B8
:100C800028D116480021026842F4805202600068B0
:100C900000F48050059011481438026842F00102B7
:100CA0000260006800F001000590E0200090022042
:100CB000CDE901010320039005200490694608480E
:100CC000FFF72AFB002211462320FFF785FC232093
:100CD000FFF774FC06B010BD0030014044380240FC
:100CE00000000240F0B400248568134604261DB9B4
:100CF0004268B2F5827F0DD090F85020012A0FD0C3
:100D0000012280F8502090F851700022012F0AD063
:100D1000022431E080F85160F0BC0A4600F042B88D
:100D20000220F0BC704771B16BB180F85160426530
:100D300081638387C38702638286C2864264C168F7
:100D400019B10F4902E0012416E00E490164B5F51E
:100D5000004F04D101680B6823F480430B600168E5
:100D60004B6843F060034B6001680B685B0603D47B
:100D70000B6843F040030B6080F850202046D0E71A
:100D800089110008A91100080449884205D1C88FBB
:100D9000002802D102490120086070472400002089
:100DA00000000020F0B590F850500024012D0CD028
:100DB000012580F8505090F8515000264768012DC9
:100DC0000BD0B7F5827F06D101E00220F0BD876825
:100DD0000FB9042D01D0022429E0A9B1A2B19BB121
:100DE00090F85150042D02D0052580F851504665E9
:100DF00001638386C38682638387C387C16829B101
:100E00000D4901640D4904E0012410E00C4901641E
:100E10000C49416401684A6842F0E0024A60016896
:100E20000A68520603D40A6842F040020A6080F859
:100E300050602046F0BD0000290F0008890F00080F
:100E4000590F0008B90F0008704710B5401EB0F1E7
:100E5000807F01D3012010BD4FF0E02460610F219D
:100E6000601700F064FA0020A061072020610020D4
:100E700010BDFEE7F0B587B014216846FFF7EAF928
:100E800015480024016841F001010160016801F08A
:100E900001010591016841F04001016000680F4FB8
:100EA00000F040004FF40056059022463146384687
:100EB000FFF71FFB0125CDE900546946084802945D
:100EC000FFF72AFA0096CDE90154694638460394A3
:100ED000FFF722FA07B0F0BD303802400018024098
:100EE000000002400A4809494FF4007201600021E5
:100EF00041608160C1600161C0E905120162416227
:100F000081620A21C162FFF771BE0000003001401A
:100F100024000020FEE77047704700000148FFF7FB
:100F2000E7BD0000240000200168C968826B1180C1
:100F3000816B891C8163C18F491EC187C18F0029C4
:100F400009D101684A6822F040024A60C18E002936
:100F500001D100F049B870470168097B826B1170BC
:100F6000816B491C8163C18F491EC187C18F0029D4
:100F700009D101684A6822F060024A60C18E0029E6
:100F800001D100F031B87047016B02680988D16067
:100F9000016B891C0163C18E491EC186C18E002967
:100FA00009D101684A6822F080024A60C18F002995
:100FB00001D100F019B87047016B0268097811730C
:100FC000016B491C0163C18E491EC186C18E002977
:100FD00009D101684A6822F080024A60C18F002965
:100FE00001D100F001B8704738B50446214845F6F4
:100FF000C0510068B0FBF1F0642148430090FFF756
:101000007DFA02462068416821F020014160009885
:1010100088B1401E0090206880688007F7D5642161
:10102000204600F085F818B1606D40F02000606542
:10103000A06828B108E0606D40F020006065EEE730
:101040002068C16880680090616D012029B184F832
:1010500051002046FFF74AFD38BD94F8511084F83E
:1010600051000429204602D0FFF7EEFE38BDFFF7FD
:101070008BFE38BD1000002038B50446006841687A
:1010800021F060014160FFF739FA024664212046F1
:1010900000F020F818B1606D40F020006065A06895
:1010A00018B92068C16880680090012084F8510058
:1010B000606D0028204602D0FFF718FD38BDFFF70D
:1010C00063FE38BD10B5806B0021C187C186FFF774
:1010D0000DFD10BDF8B5044640684FF48273984288
:1010E00021D1A0684FF48065B0F5004F01D0A8422F
:1010F0000AD12068066826F04006066060689842BB
:1011000011D1A068A8420ED000920B460022802187
:10111000204600F059F8002804D0606D40F020000F
:1011200060650320F8BD00920B4600220121EFE725
:1011300038B504461248134B0068B0FBF3F04FF487
:101140007A73584300906068B0F5827F0DD10B46EA
:10115000009200228021204600F036F870B1606DC8
:1011600040F020006065032038BD009830B1401E7B
:10117000009020688068C0430006F6D5002038BD86
:101180001000002000366E010168C968826B118072
:10119000816B891C8163C18F491EC187C18F002962
:1011A00001D1FFF769BF70470168097B826B11703D
:1011B000816B491C8163C18F491EC187C18F002982
:1011C00001D1FFF759BF70472DE9F0411D46174681
:1011D0000E460446DDF8188008E0681C06D0FFF7CC
:1011E0008DF9A0EB0800A8420BD255B120688068A9
:1011F00036EA000030D00020B842EED10020BDE831
:10120000F0812068416821F0E00141606068B0F53C
:10121000827F0BD1A068B0F5004F02D0B0F5806F8F
:1012200004D12068016821F040010160A06AB0F596
:10123000005F09D12068016821F400510160206835
:10124000016841F400510160012084F85100002040
:1012500084F850000320D2E70120CDE77047FFF764
:1012600053B9000010B592B030216846FEF7F2FF86
:1012700014210CA8FEF7EEFF15480024016841F088
:1012800080510160006800F08050119011480168A1
:1012900021F4404141F4804101600068069400F46B
:1012A00040401190022000900120039010200490F3
:1012B0006846FFF78DFA0F20CDE90C040E940F94C9
:1012C00000210CA81094FFF7B9F912B010BD00006E
:1012D00040380240007000401048016841F470013D
:1012E00001600F48016841F0010101600C4A0021D2
:1012F0000832116002680B4B1A400260031D0A4A53
:101300001A60026822F48022026005480C300160F5
:1013100002495806803908607047000088ED00E0F7
:1013200000380240FFFFF6FE10300024FEE70907F8
:10133000090E002804DB00F1E02080F8001470475B
:1013400000F00F0000F1E02080F8141D704702E06B
:1013500008C8121F08C1002AFAD170477047002040
:1013600001E001C1121F002AFBD17047FFF7D4F83A
:10137000FFF778FFFFF77EFDFFF7B4FD0F4C104E2F
:1013800000274FF400554FF4FA680E490E2201F180
:101390001000FFF7A7FC206801280BD12946304632
:1013A000FFF7A0F84046FEF7A5FF29463046FFF7B5
:1013B00099F827606420FEF79DFFE6E70000002013
:1013C000001802401400002000000000000000008F
:1013D0000102030406070809F813000800000020B2
:1013E000140000004E1300080C1400081400002024
:1013F0006C0400005E130008000000000100000003
:0C14000010000000000000000024F400B8
:04000005080001AD41
:00000001FF
