:020000040800F2
:10000000D8040020C101000867150008B5140008D5
:1000100065150008CD020008031A00080000000062
:100020000000000000000000000000006B15000848
:100030001503000800000000691500086D15000890
:10004000DB010008DB010008DB010008DB01000820
:10005000DB010008DB010008DB010008DB01000810
:10006000DB010008DB010008DB010008DB01000800
:10007000DB010008DB010008DB010008DB010008F0
:10008000DB010008DB010008DB010008DB010008E0
:10009000D1020008DB010008DB010008DB010008D9
:1000A000DB010008DB010008DB010008DB010008C0
:1000B000DB010008DB010008DB010008DB010008B0
:1000C000DB010008DB010008DB010008DB010008A0
:1000D000DB010008DB01000839160008DB0100081D
:1000E000DB010008DB010008DB010008DB01000880
:1000F000DB010008DB010008DB010008DB01000870
:10010000DB010008DB010008DB010008DB0100085F
:10011000DB010008DB010008DB010008DB0100084F
:10012000DB010008DB010008DB010008DB0100083F
:10013000DB010008DB010008DB010008DB0100082F
:10014000DB010008DB010008DB010008DB0100081F
:10015000DB010008DB010008DB010008DB0100080F
:10016000DB010008DB010008DB010008DB010008FF
:10017000DB010008DB010008DB01000800000000D3
:10018000DB010008DB010008DB010008DB010008DF
:10019000DB010008DB010008DB010008DB010008CF
:1001A000DB010008DB010008DB010008DFF80CD0F0
:1001B00000F07AF800480047451A0008D8040020EB
:1001C0000648804706480047FEE7FEE7FEE7FEE7F1
:1001D000FEE7FEE7FEE7FEE7FEE7FEE7E5150008BF
:1001E000AD0100082DE9F05F0546002092469B46D0
:1001F00088460646814640241BE02846414647463D
:10020000224600F041F853465A46C01A914110D395
:1002100011461846224600F028F82D1A67EB01080F
:100220004F4622460120002100F01FF817EB00097D
:100230004E41201EA4F10104DFDC484631462A4627
:100240004346BDE8F09FD2B201E000F8012B491E01
:10025000FBD270470022F6E710B513460A46044663
:100260001946FFF7F0FF204610BD202A04DB203A94
:1002700000FA02F1002070479140C2F1200320FAF9
:1002800003F3194390407047202A04DB203A21FAF7
:1002900002F00021704721FA02F3D040C2F120029F
:1002A0009140084319467047064C074D06E0E06848
:1002B00040F0010394E8070098471034AC42F6D3AD
:1002C000FFF778FF581B0008781B0008FEE70000C6
:1002D000014800F080B900002800002000B589B076
:1002E00009A108ABD1E90001CDE906010520049080
:1002F0000120009000200290039006AA694604485D
:1003000000F009F809B000BD48454C4C4F00000012
:10031000280000207047F0B590F820500468A468C9
:10032000012D05D0022D03D0416A41F4802153E014
:1003300014F0406F01D1E5004BD5C4F30164022CE9
:1003400003D9416A41F4000146E00125A5401D6042
:100350008D684FF4C0739DB1CE6835434E6845EA51
:10036000C605066803EB0417F5514FF4C27507681C
:1003700005EB04150E697E51097D012905D009E0C0
:100380000E88CD6845EA4655EBE701684E5946F4BC
:1003900080764E511179D2F805504FF4C67641EA75
:1003A0000525016806EB04168D511178D2F801205D
:1003B0004FF4C47541EA0221026805EB041551515E
:1003C000006803EB0411425842F001024250002041
:1003D000F0BD416A41F4001141620120F0BD00000E
:1003E00010B590F82020012A07D0022A05D0416AD2
:1003F00041F480214162012010BD3B48D0F8002229
:1004000042F00102C0F80022D0F8002222F47C520F
:10041000C0F80022D0F800224B6A42EA0322C0F85A
:1004200000220A7D02F01F0301229A40D0F81C32FC
:100430009343C0F81C32CB69B3B9D0F80C32934364
:10044000C0F80C328C894B6864F31F434C6900EB95
:10045000C404C4F840320C890B6864F31F434C6930
:1004600000EBC404C4F84432CB69012B16D1D0F898
:100470000C321343C0F80C320C884B6864F31F43F2
:100480004C6900EBC404C4F840320C89CB6864F3B7
:100490001F434C6900EBC404C4F844328B69002B41
:1004A000D0F804320ED01343C0F804320B69002B8D
:1004B000D0F8143208D01343C0F81432096A012965
:1004C00004D008E09343EFE79343F5E7D0F81C121C
:1004D0001143C0F81C12D0F8001221F00101C0F83D
:1004E0000012002010BD000000640040704730B5CD
:1004F00090F82040012C05D0022C03D0416A41F431
:1005000080215DE00468002955D02469A40754D0F7
:100510004FF4D874056804EB01142D5915F0040547
:10052000956005682D594ED0ED08556005682C5929
:10053000C4F34004D4604FF4DA74056804EB01148A
:100540002D5905F00F05156105682D59C5F30725CF
:10055000956105682C59240C54614FF4DC720468D1
:1005600002EB0112A4581C700468A458240A5C70A1
:100570000468A458240C9C700468A258120EDA7007
:100580004FF4DE72046802EB0112A4581C71046877
:10059000A458240A5C710468A458240C9C71046853
:1005A000A258120EDA71006881B1016941F0200190
:1005B0000161002030BDE468A8E7416A41F4001100
:1005C0004162012030BD6D0D1560AFE7C16841F09B
:1005D0002001C160EDE72DE9F05F054600680024C9
:1005E0004669D0F804908768D0F80CB0D0F810A015
:1005F000D0F81880F10748D0F90714D001218160A4
:10060000B80703D5284600F0C7F90CE0780702D5F3
:100610004FF4006407E0380702D54FF4805402E03D
:10062000284600F0B8F9F80516D529684FF480700F
:100630008860B80503D5284600F0B0F90CE07805CD
:1006400002D544F4005407E0380502D544F4804450
:1006500002E0284600F0A1F9F80316D529684FF406
:1006600080308860B80303D5284600F099F90CE083
:10067000780302D544F4004407E0380302D544F47B
:10068000803402E0284600F08AF9300707D55FEA97
:10069000CB6004D52968102044F40074C86070074A
:1006A0004FF0080707D55FEA0B7004D52868C760CC
:1006B000284600F059F9B00706D52868C0688007B9
:1006C00002D0284600F052F9700607D55FEACA60EA
:1006D00004D52968102044F480640861B00607D569
:1006E0005FEA0A7004D528680761284600F050F9CF
:1006F000F00606D528680069800702D0284600F079
:1007000048F9B00308D55FEAC96005D5296810200B
:100710004860284600F03EF9F00307D55FEA09700B
:1007200004D528684760284600F03BF9300446D5D8
:100730005FEA497040D5F00504D55FEAC87001D082
:1007400044F00104B00504D55FEA887001D544F097
:100750000204700504D55FEA487001D544F0040432
:10076000300529D518F0700F26D008F07000402809
:1007700015D006DC102809D020280AD0302816D140
:100780000AE050280ED0602811D10EE044F0080491
:100790000DE044F010040AE044F0200407E044F0C7
:1007A000400404E044F0800401E044F480742868CC
:1007B000816921F070018161296804204860002C62
:1007C00005D0686A204368622846FFF78FFEBDE8BF
:1007D000F09F70B5040003D094F8200010B104E03D
:1007E000012070BD204600F081F82068016821F0EA
:1007F0000201016000F0F2F90546052604E000F070
:10080000EDF9401B0A2811D8206840688007F6D40B
:100810002068016841F00101016000F0DFF9054640
:100820000BE000F0DBF9401B0A2806D9606A40F4AF
:100830000030606284F82060D2E720684068C0071A
:10084000EFD0207E0128206801683DD021F0800192
:100850000160607E01282068016838D021F04001E5
:100860000160A07E01282068016833D021F02001BA
:100870000160E07E0128206801682ED041F010015F
:100880000160207F01282068016829D021F008013B
:100890000160607F01282068016824D021F00401F4
:1008A0000160D4E902010843D4E90412114308436A
:1008B0006168491E08432168C86100206062012008
:1008C00084F82000002070BD41F08001C0E741F0B5
:1008D0004001C5E741F02001CAE721F01001CFE750
:1008E00041F00801D4E741F00401D9E710B586B022
:1008F000044614216846FFF7ADFC18492068884279
:1009000029D117480021026842F000720260006895
:1009100000F00070059012481038026842F00102A1
:100920000260006800F0010005904FF4C050009094
:100930000220CDE9010103200390092004906946BB
:10094000084800F053F800221146142000F0B4F9D2
:10095000142000F0A3F906B010BD000000640040B0
:10096000403802400000024070470000064B10B5BE
:1009700003F1A4020021A2F19400FFF7B8FD03499E
:100980000120486010BD0000180000200000002079
:10099000704770477047704770477047704770479F
:1009A0007047704790F83510022903D080214165C7
:1009B00001207047052180F835100068016821F09A
:1009C000010101600020704770B5044600F006F98F
:1009D0000546601C02D004480078044400F0FEF88C
:1009E000401BA042FAD370BD080000202DE9F84F4B
:1009F000DFF890B100224FF001084FF0030A4FF0EA
:100A00000F090BF1040E00BF0B6808FA02F4234033
:100A1000A3426ED14D68022D01D0122D0ED1D50802
:100A200000EB850CDCF820505607F70E09FA07F6A4
:100A3000B5430E69BE402E43CCF8206006685500D1
:100A40000F790AFA05FC07F0030726EA0C06AF4007
:100A5000374307604E68012E05D0022E03D0112EB9
:100A600001D0122E0ED18768CE6827EA0C07AE405F
:100A70003E4386604668A6430C79C4F30014944054
:100A800034434460C4688E6824EA0C04AE402643B4
:100A9000C6604C68E4006FD53B4C256845F4804542
:100AA0002560246822F0030504F480440094374C48
:100AB0002E19D6F8084895072F0F09FA07F5AC4309
:100AC000334DA84201D100252EE0324DA84201D17C
:100AD000012529E0304DA84201D1022524E02F4D07
:100AE000A84201D103251FE02D4DA84202D10425C3
:100AF0001AE041E02B4DA84201D1052514E02A4D12
:100B0000A84201D106250FE0284DA84201D10725B2
:100B10000AE0274DA84201D1082505E0254DA8424D
:100B200001D1092500E00A25BD402543C6F8085833
:100B3000DBF800405D464E689C43F60300D51C433D
:100B40002C60DEF8004075464E689C43B60300D525
:100B50001C432C600B4D08352C684E689C43F602F4
:100B600000D51C432C60074D0C352C684E689C4307
:100B7000B60200D51C432C60521C102AFFF444AF6F
:100B8000BDE8F88F003C014044380240003001408D
:100B9000000002400004024000080240000C024035
:100BA000001002400014024000180240001C0240E5
:100BB00000200240002402400069084000D00120CB
:100BC0007047426931EA020200D10904816170472D
:100BD0000AB1816170470904FBE7000001488068A1
:100BE0007047000008000020024881680278114424
:100BF00081607047080000200B4810B5016841F47F
:100C000000710160016841F480610160016841F494
:100C100080710160032000F06FF8002000F006F8FA
:100C200000F024F8002010BD003C024070B50D4DCE
:100C300004464FF47A712878B1FBF0F00A4909684C
:100C4000B1FBF0F000F0E2FA48B9102C07D2002214
:100C50002146501E00F030F800206C6070BD01206D
:100C600070BD000008000020140000200A4808B5EC
:100C7000016841F480410160006800F48040009008
:100C80000548001F016841F080510160006800F0D4
:100C90008050009008BD000044380240002809DB65
:100CA00000F01F02012191404009800000F1E02086
:100CB000C0F8001170470000F0B40E4B1B680C46E2
:100CC000C3F30223C3F10705042D00D90425191D20
:100CD000072901D2002300E0DB1E012606FA05F1F8
:100CE000491E214099409E40761E16403143F0BC7B
:100CF00000F088BE0CED00E0064900F0070208682D
:100D00004FF6FF03184040EA0220034A10430860F0
:100D1000704700000CED00E00000FA052DE9F047F7
:100D20000E46050065D0DFF81481D8F80000F7B250
:100D300000F00F00B04207D288F80070D8F8000029
:100D400000F00F00B04254D128683D4C810712D505
:100D5000400703D5206840F4E05020602878000761
:100D600003D5206840F4604020602068A96820F026
:100D7000F000084320602878C0072DD0304968680B
:100D80000839012812D0022813D0032811D009688D
:100D9000890700292DDA216821F003010143216030
:100DA000FFF71CFF814641F2883A0EE0096889038B
:100DB000EFE709688901ECE7FFF710FFA0EB0901F5
:100DC000514502D90320BDE8F0872068696800F02A
:100DD0000C00B0EB810FEFD1D8F80010404601F0C5
:100DE0000F01B14207D90770006800F00F00B04250
:100DF00001D00120E7E72878400705D52068E96899
:100E000020F4E050084320602878000706D52068C9
:100E1000296920F4604040EAC100206000F036F803
:100E20002168084AC1F30311515CC84006490860B3
:100E30000020FFF7FBFE0020C5E70000003C024059
:100E400008380240401B00081400002004480549EF
:100E500000680968044AC1F38221515CC8407047A8
:100E60001400002008380240501B000804480549BF
:100E700000680968044AC1F34231515CC8407047B8
:100E80001400002008380240501B0008154810B517
:100E9000006810F00C02144813D01449042A0FD033
:100EA000082A0ED10F4C241F2268236802F03F024B
:100EB0005B0207D52068C0F38810A0FB010106E0A3
:100EC000084610BD2168C1F38811A1FB0001002371
:100ED000FFF788F92168C1F30141491C4900B0FBC3
:100EE000F1F010BD083802400024F40040787D0184
:100EF0002DE9F84F050076D02878DFF8F8B2BE4C1F
:100F0000C00749D0DBF800105846C1F38101012920
:100F100008D00068C0F3810002280AD1201D0068B3
:100F2000400206D52068800336D568680028E2D0E4
:100F300032E06868B0F5803F10D0B0F5A02F20688F
:100F400010D020F480302060206820F480202060C1
:100F50006868A0B1FFF742FE06460CE0206840F446
:100F60008030F4E740F480202060F7E7FFF736FE9A
:100F7000801B642873D820688003F7D50CE0FFF746
:100F80002DFE064605E000BFFFF728FE801B642803
:100F9000F0D820688003F7D42878DFF860828007D3
:100FA0004FF000093ED5DBF80010584611F00C0F49
:100FB00009D00068C0F3810002280BD18D48001FC2
:100FC0000068400206D42068800715D5E86801282B
:100FD00009D111E0E868B8B10120C8F80000FFF7B6
:100FE000FDFD064605E002E1FFF7F8FD801B022843
:100FF000C0D820688007F7D52068296920F0F8005C
:1010000040EAC10020600DE0C8F80090FFF7E6FD5F
:10101000064604E0FFF7E2FD801B02281FD8206887
:101020008007F7D42878000722D5724E7448696982
:101030006C3671B101210160FFF7D0FD074604E075
:10104000FFF7CCFDC01B022809D830688007F7D510
:101050000EE0C0F80090FFF7C1FD074605E083E011
:10106000FFF7BCFDC01B02287ED830688007F7D48C
:101070002878400768D5DFF87CA100270AF1380AF4
:10108000DAF80000C0000BD4DAF8001041F080510B
:10109000CAF80010DAF80000012700F08050009034
:1010A000584E3068C00510D4306840F4807030600D
:1010B000FFF794FD009005E0FFF790FD0099401ABE
:1010C000022851D83068C005F6D54A4EA86868365F
:1010D00001280FD00528306810D020F001003060C2
:1010E000306820F004003060A868B8B1FFF776FDE2
:1010F00000900FE0306840F00100F4E740F0040099
:101100003060F7E7FFF76AFD0099411A41F2883035
:10111000814264D830688007F4D50EE0FFF75EFDA9
:10112000009007E0FFF75AFD0099411A41F288301C
:10113000814254D830688007F4D42FB1DAF8001017
:1011400021F08051CAF80010A869C0B3DBF8001084
:10115000C1F3810102294AD00228484607D0C8F8C5
:101160006000FFF73BFD00E039E005463AE0474606
:10117000C8F86000FFF732FD064604E0FFF72EFDD9
:10118000801B02282BD820688001F7D4D5E90701FD
:101190000843A96A1C4A490802EB01416A6A41EA0C
:1011A0008211084395F82C1040EA01611148001F94
:1011B000016001203866FFF711FD054605E014E0E7
:1011C000FFF70CFD401B022809D820688001F7D5E5
:1011D0000BE000BFFFF702FD401B022802D90320ED
:1011E000BDE8F88F20688001F4D40020F8E70120E2
:1011F000F6E700000838024000380240000047428D
:10120000800E4742007000400000FFFF10B5401EF6
:10121000B0F1807F01D3012010BD4FF0E024606168
:101220000F21601700F0EEFB0020A0610720206175
:10123000002010BD7047000070B5026804461068B9
:10124000D168536910F00F0F54D003F0010501F479
:101250009076354368D0C20705D0CA0503D5226C05
:1012600042F001022264420705D5DA0703D0226C5E
:1012700042F002022264820705D5DA0703D0226C0D
:1012800042F004022264020705D5DA0703D0226C7B
:1012900042F008022264226C002A3ED0800608D563
:1012A000880606D594F83D00222820462FD000F06D
:1012B00003FB20684069216CC0F38010090700D44B
:1012C00060B3204600F0C6F920684169490621D57F
:1012D000416921F040014161A06BD8B12549016508
:1012E000A06BFFF75FFB002817D0A06B016DBDE876
:1012F00070400847830617D58B0615D594F83D0036
:10130000222819D12046BDE8704000F0B1B900F0A4
:10131000AFF9CEE72046FFF78DFF70BD2046FFF7FF
:1013200089FF0020206470BD03060FD50B060DD584
:1013300094F83D00122804D02046BDE8704000F02B
:10134000BBBA2046BDE8704000F02ABB4006EAD593
:101350004806E8D5D168204621F04001D1602168D7
:101360004A6922F001024A61012184F83D1000F02F
:101370009FF870BD4516000870B5040004D094F8BD
:101380003D00002510B106E0012070BD84F83C50FE
:10139000204600F01BF8022084F83D00204600F0B3
:1013A000BFF92068016921F4804101612068416929
:1013B00021F02A0141612068C16841F40051C160F7
:1013C0002564012084F83D00002070BD10B586B072
:1013D000044614216846FEF73DFF174920688842FD
:1013E00028D116480021026842F4003202600068E9
:1013F00000F40030059011481038026842F00102F4
:101400000260006800F0010005901C20009002209E
:10141000CDE90101032003900720049069460848A4
:10142000FFF7E4FA002211462620FFF745FC2620AC
:10143000FFF734FC06B010BD0044004040380240C5
:101440000000024090F83D30012B21D1F1B1EAB10A
:1014500090F83C30012B1BD0C162028642860021ED
:101460000164222280F83D2080F83C100168CA689F
:1014700042F49072CA6001684A6942F001024A610E
:10148000006840F2FF114160002070470120704762
:10149000022070470449884205D1488E002802D1B5
:1014A0000249012008607047500000200000002021
:1014B00070477047FEE700000D480C494FF440228A
:1014C0000160022141604FF0404181600021C0E98C
:1014D00003124FF480124261017641768176012237
:1014E000C27601774177FFF774B9000000640040CD
:1014F00028000020F0B587B014216846FEF7AAFE48
:1015000015480024016841F001010160016801F003
:1015100001010591016841F04001016000680F4F31
:1015200000F040004FF40056059022463146384600
:10153000FFF74EFB0125CDE90054694608480294A7
:10154000FFF754FA0096CDE90154694638460394F2
:10155000FFF74CFA07B0F0BD3038024000180240E7
:1015600000000240FEE7704770477047FFF73CBB42
:1015700010B592B030216846FEF76CFE14210CA81D
:10158000FEF768FE15480024016841F080510160B3
:10159000006800F0805011901148016821F440412A
:1015A00041F4804101600068069400F440401190CD
:1015B0000220009001200390102004906846FFF75D
:1015C00097FC0F20CDE90C048020CDE90E0400210A
:1015D0000CA81094FFF7A2FB12B010BD40380240D7
:1015E000007000401048016841F4700101600F482C
:1015F000016841F0010101600C4A002108321160CC
:1016000002680B4B1A400260031D0A4A1A60026806
:1016100022F48022026005480C300160024958061D
:10162000803908607047000088ED00E00038024013
:10163000FFFFF6FE103000240148FFF7FDBD00005B
:101640005000002010B5806B002141864185FFF7D6
:10165000F1FD10BD0168CA6822F49072CA60016889
:101660004A6922F001024A61012180F83D10704769
:1016700010B590F83D10222901D0022010BD8168DC
:10168000B1F5805F16D00169002901682CD0496846
:1016900001F07F03C16A4A1CC2620B70418E491E71
:1016A0000904090C418602D0FF2102685160418E75
:1016B00001B333E00269C16A002A026852680DD0A2
:1016C000D2B20A80C16A491CC162418E491E090416
:1016D000090C4186EBD040F2FF11E6E7C2F30802A5
:1016E0000A80C16A891CEFE74A68C16A4B1CC36261
:1016F0000A70D3E70168CA6822F02002CA60016854
:10170000CA6822F48072CA6001684A6922F0010244
:101710004A61012180F83D10FFF7BCFE002010BD9A
:101720002DE9F04104460068C16821F00C01C16058
:1017300021680869E56820F47C52D4E9060318435F
:10174000236A2B431843104340F40060086121686A
:10175000C86849F20C6290432369A2681A4363691E
:1017600003431A4342F40040C8602068416921F4F1
:10177000407141614E49206864254FF0320888422B
:1017800002D04C4988423CD1FFF770FB00EBC0010E
:1017900001EB001061684900B0FBF1F0B0FBF5F01F
:1017A0000601FFF763FB00EBC00101EB001061686D
:1017B0004900B0FBF1F7FFF759FB00EBC00101EB6B
:1017C000001061684900B0FBF1F0B0FBF5F06FF07C
:1017D0001801484307EB800108EBC100B0FBF5F0AE
:1017E00000F0F80006EB4006FFF740FB00EBC001FD
:1017F00001EB001061684900B0FBF1F7FFF736FB21
:101800003BE0FFF723FB00EBC00101EB0010616838
:101810004900B0FBF1F0B0FBF5F00601FFF716FB55
:1018200000EBC00101EB001061684900B0FBF1F76B
:10183000FFF70CFB00EBC00101EB001061684900F1
:10184000B0FBF1F0B0FBF5F06FF01801484307EB87
:10185000800108EBC100B0FBF5F000F0F80006EBEA
:101860004006FFF7F3FA00EBC00101EB00106168DE
:101870004900B0FBF1F7FFF7E9FA00EBC00101EB1B
:10188000001061684900B0FBF1F0B0FBF5F06FF0BB
:101890001801484307EB800108EBC100B0FBF5F0ED
:1018A000216800F0070030448860BDE8F081000046
:1018B000001001400014014010B590F83D1032298D
:1018C00001D0022010BD418D4FF4805319B301683F
:1018D0000A68D24312061ED482689A42426A0CD128
:1018E0001288C2F308024A6001690029416A02D0E5
:1018F000491C416205E0891CFBE7541C44621278D4
:101900004A60418D491E4185418D21B90168CA68EF
:1019100022F08002CA60418E19B301680A68D2437E
:1019200092061ED482689A420FD10369C26A49683E
:101930002BB1C9B21180C16A491CC1620EE0C1F36A
:1019400008011180C16A891CF7E7026962B1496820
:1019500001F07F03C16A4A1CC2620B70418E491EAE
:101960004186418E31B119E04A68C16A4B1CC3629D
:101970000A70F3E70168CA6822F02002CA600168B1
:10198000CA6822F48072CA6001684A6922F00102C2
:101990004A61012180F83D10FFF78BFD002010BD4A
:1019A00090F83D10122901D0022070478168B1F5EE
:1019B000805F416A0BD04A1C42620268097851601C
:1019C000418D491E0904090C41850ED017E0098894
:1019D0000268C1F30801516001690029416A02D01F
:1019E000491C4162ECE7891CFBE70168CA6822F0E8
:1019F0008002CA600068C16841F04001C1600020F7
:101A00007047FEE70907090E002804DB00F1E0201B
:101A100080F80014704700F00F0000F1E02080F81B
:101A2000141D704702E008C8121F08C1002AFAD12D
:101A300070477047002001E001C1121F002AFBD14E
:101A400070470000FFF7D8F8FFF792FDFFF752FD4F
:101A5000FFF732FD36483549002401604FF4E1318B
:101A6000C0E901140C21C460C0E904418461C4616F
:101A70000462FFF781FC2E4844F6A0014430446123
:101A80000461C0E9001484600121C161C460016285
:101A900001466C38FEF7A4FC264F274DDFF89C80EA
:101AA0004FF400564FF4FA6921490E223839204884
:101AB000FFF7C8FC286801280BD131464046FFF7E4
:101AC00080F84846FEF780FF31464046FFF779F838
:101AD0002C6001213846FFF76FF801280AD14FF436
:101AE000FA70FEF771FF01213846FFF765F808B973
:101AF000FEF7F4FB686801280BD131464046FFF73A
:101B000060F84846FEF760FF31464046FFF759F857
:101B10006C606420FEF758FF054B0021383B03F151
:101B2000A402A2F19400FEF7E2FCBDE700440040ED
:101B30005000002000000240000000200018024079
:101B4000000000000000000001020304060708096D
:101B50000000000001020304781B000800000020C0
:101B600018000000241A0008901B0008180000202C
:101B7000C0040000341A000800000000000000004B
:101B80000100000010000000000000000024F4002C
:04000005080001AD41
:00000001FF
