:020000040800F2
:10000000E0130020C10100087B220008F320000853
:100010007922000847030008F93E000800000000AC
:100020000000000000000000000000004927000858
:100030003904000800000000072400084B270008CE
:10004000DB010008DB010008DB010008DB01000820
:10005000DB010008DB010008DB010008DB01000810
:10006000DB010008DB010008DB010008DB01000800
:10007000DB010008DB010008DB010008DB010008F0
:10008000DB010008DB010008DB010008DB010008E0
:1000900049030008DB010008DB010008DB01000860
:1000A000DB010008DB010008DB010008DB010008C0
:1000B000DB010008DB010008DB010008DB010008B0
:1000C000DB010008DB010008DB010008092400084F
:1000D000DB010008DB010008DB010008DB01000890
:1000E000DB010008DB010008DB010008DB01000880
:1000F000DB010008DB010008DB010008DB01000870
:10010000DB010008DB010008DB010008DB0100085F
:10011000DB010008DB010008DB010008DB0100084F
:10012000DB010008DB010008DB010008DB0100083F
:10013000DB010008DB010008DB010008DB0100082F
:10014000DB010008DB010008DB0100087D2200085C
:10015000DB010008DB010008DB010008DB0100080F
:10016000DB010008DB010008DB010008DB010008FF
:10017000DB010008DB010008DB01000800000000D3
:10018000DB010008DB010008DB010008DB010008DF
:10019000DB010008DB010008DB010008DB010008CF
:1001A000DB010008DB010008DB010008DFF80CD0F0
:1001B00000F08CF800480047893F0008E013002059
:1001C0000648804706480047FEE7FEE7FEE7FEE7F1
:1001D000FEE7FEE7FEE7FEE7FEE7FEE7D5270008BD
:1001E000AD0100082DE9F05F0546002092469B46D0
:1001F00088460646814640241BE02846414647463D
:10020000224600F053F853465A46C01A914110D383
:1002100011461846224600F03AF82D1A67EB0108FD
:100220004F4622460120002100F031F817EB00096B
:100230004E41201EA4F10104DFDC484631462A4627
:100240004346BDE8F09F40EA01039B0703D009E065
:1002500008C9121F08C0042AFAD203E011F8013BB2
:1002600000F8013B521EF9D27047D2B201E000F80B
:10027000012B491EFBD270470022F6E710B513464A
:100280000A4604461946FFF7F0FF204610BD202A13
:1002900004DB203A00FA02F1002070479140C2F1DD
:1002A000200320FA03F3194390407047202A04DB0F
:1002B000203A21FA02F00021704721FA02F3D040DF
:1002C000C2F120029140084319467047064C074D81
:1002D00006E0E06840F0010394E807009847103416
:1002E000AC42F6D3FFF766FFC0410008E0410008CA
:1002F00070B58C1810F8015B15F0070301D110F8E8
:10030000013B2A1106D110F8012B03E010F8016B14
:1003100001F8016B5B1EF9D12B0705D40023521E97
:100320000DD401F8013BFAE710F8013BCB1A921CFF
:1003300003E013F8015B01F8015B521EF9D5A142FD
:10034000D8D3002070BDFEE7014800F0E8B90000F6
:10035000F40100202DE9F043194A8DB00020D2E9C4
:100360000C12CDE901120824DFF85490CDE90604FF
:100370000127144E05460DF1040809F130090397D1
:1003800005900F480BAB01AA03A9483000F068F8AC
:1003900002E0642000F036FCF0680028F9D000206C
:1003A00041464A46135D0B54401C641C0828F9DB87
:1003B0006D1CF760032DE4DB0DB0BDE8F083000099
:1003C000AC01002000000020002070470020704792
:1003D00010B500220549064802F01AFB03490448FB
:1003E000403902F00FFB002010BD00009C0B0020E4
:1003F000B802002010B50146034802F003FB024892
:1004000002F0E4FA002010BDB8020020094A10B53D
:10041000D2F89022D2F814220AB1012010BD0A4667
:100420000146044802F0F4FABDE81040014802F029
:100430004DBB0000B80200207047704790F82020A4
:10044000012A07D0022A05D0416A41F48021416285
:1004500001207047006842690A43426100207047EA
:10046000F0B590F820500468A468012D05D0022D45
:1004700003D0416A41F4802153E014F0406F01D170
:10048000E5004BD5C4F30164022C03D9416A41F461
:10049000000146E00125A5401D608D684FF4C07342
:1004A0009DB1CE6835434E6845EAC605066803EB44
:1004B0000417F5514FF4C275076805EB04150E6972
:1004C0007E51097D012905D009E00E88CD6845EAF5
:1004D0004655EBE701684E5946F480764E51117946
:1004E000D2F805504FF4C67641EA0525016806EBBF
:1004F00004168D511178D2F801204FF4C47541EAE9
:100500000221026805EB04155151006803EB041148
:10051000425842F0010242500020F0BD416A41F4CD
:10052000001141620120F0BD10B590F82020012A91
:1005300007D0022A05D0416A41F48021416201209E
:1005400010BD3B48D0F8002242F00102C0F8002262
:10055000D0F8002222F47C52C0F80022D0F8002209
:100560004B6A42EA0322C0F800220A7D02F01F0310
:1005700001229A40D0F81C329343C0F81C32CB6958
:10058000B3B9D0F80C329343C0F80C328C894B6865
:1005900064F31F434C6900EBC404C4F840320C8977
:1005A0000B6864F31F434C6900EBC404C4F8443285
:1005B000CB69012B16D1D0F80C321343C0F80C32A2
:1005C0000C884B6864F31F434C6900EBC404C4F807
:1005D00040320C89CB6864F31F434C6900EBC404C0
:1005E000C4F844328B69002BD0F804320ED0134388
:1005F000C0F804320B69002BD0F8143208D0134332
:10060000C0F81432096A012904D008E09343EFE7E7
:100610009343F5E7D0F81C121143C0F81C12D0F830
:10062000001221F00101C0F80012002010BD0000EE
:1006300000640040704730B590F82040012C05D090
:10064000022C03D0416A41F480215DE00468002956
:1006500055D02469A40754D04FF4D874056804EB2E
:1006600001142D5915F00405956005682D594ED0DB
:10067000ED08556005682C59C4F34004D4604FF46C
:10068000DA74056804EB01142D5905F00F051561A6
:1006900005682D59C5F30725956105682C59240C6B
:1006A00054614FF4DC72046802EB0112A4581C7010
:1006B0000468A458240A5C700468A458240C9C7034
:1006C0000468A258120EDA704FF4DE72046802EB6E
:1006D0000112A4581C710468A458240A5C710468AF
:1006E000A458240C9C710468A258120EDA71006898
:1006F00081B1016941F020010161002030BDE46851
:10070000A8E7416A41F400114162012030BD6D0D3E
:100710001560AFE7C16841F02001C160EDE72DE948
:10072000F05F0546006800244669D0F804908768A9
:10073000D0F80CB0D0F810A0D0F81880F10748D04D
:10074000F90714D001218160B80703D5284600F0CD
:1007500002FA0CE0780702D54FF4006407E038078E
:1007600002D54FF4805402E0284600F0F3F9F80572
:1007700016D529684FF480708860B80503D52846DF
:1007800000F0EBF90CE0780502D544F4005407E0E2
:10079000380502D544F4804402E0284600F0DCF934
:1007A000F80316D529684FF480308860B80303D564
:1007B000284600F0D4F90CE0780302D544F4004454
:1007C00007E0380302D544F4803402E0284600F004
:1007D000C5F9300707D55FEACB6004D5296810203A
:1007E00044F40074C86070074FF0080707D55FEA4B
:1007F0000B7004D52868C760284600F057F9B00789
:1008000006D52868C068800702D0284600F050F955
:10081000700607D55FEACA6004D52968102044F441
:1008200080640861B00607D55FEA0A7004D52868BD
:100830000761284600F05EF9F00606D528680069D1
:10084000800702D0284600F056F9B00308D55FEAC9
:10085000C96005D5296810204860284600F04CF989
:10086000F00307D55FEA097004D528684760284679
:1008700000F076F9300446D55FEA497040D5F005BE
:1008800004D55FEAC87001D044F00104B00504D576
:100890005FEA887001D544F00204700504D55FEA70
:1008A000487001D544F00404300529D518F0700FC4
:1008B00026D008F07000402815D006DC102809D09A
:1008C00020280AD0302816D10AE050280ED06028FF
:1008D00011D10EE044F008040DE044F010040AE0E9
:1008E00044F0200407E044F0400404E044F08004B5
:1008F00001E044F480742868816921F0700181610D
:10090000296804204860002C05D0686A204368628A
:100910002846FFF78FFEBDE8F09F70B5040003D0B6
:1009200094F8200010B104E0012070BD204600F0D2
:1009300081F82068016821F00201016000F06CFA82
:100940000546052604E000F067FA401B0A2811D886
:10095000206840688007F6D42068016841F00101F2
:10096000016000F059FA05460BE000F055FA401B13
:100970000A2806D9606A40F40030606284F820607A
:10098000D2E720684068C007EFD0207E01282068A9
:1009900001683DD021F080010160607E012820685F
:1009A000016838D021F040010160A07E0128206854
:1009B000016833D021F020010160E07E0128206829
:1009C00001682ED041F010010160207F01282068CD
:1009D000016829D021F008010160607F01282068AA
:1009E000016824D021F004010160D4E90201084328
:1009F000D4E90412114308436168491E0843216881
:100A0000C86100206062012084F82000002070BDD1
:100A100041F08001C0E741F04001C5E741F020010D
:100A2000CAE721F01001CFE741F00801D4E741F017
:100A30000401D9E710B586B0044614216846FFF7D3
:100A40001BFC17492068884227D1164800210268FC
:100A500042F000720260006800F0007005901148DA
:100A60001038026842F0080202600068022200F0BA
:100A7000080005900320CDE90210CDE9000209200D
:100A800004906946084800F0CFF80022114614206F
:100A900000F030FA142000F01FFA06B010BD00007C
:100AA0000064004040380240000C024070470000E3
:100AB00070B50F4A0D4B0021A2F1A800FFF7BBFD56
:100AC0000A480B4B10380022084C8168D83BA55CC3
:100AD0005D54491C521C082AF9DB01228160172948
:100AE00002D10021C0E90121C26070BD10000020C8
:100AF0009C020020704770477047000070B50446A4
:100B000090F82000012804D0606A40F40020606260
:100B100018E0022084F820002068016821F001011B
:100B2000016000F079F905460EE000BF00F074F9AD
:100B3000401B0A2808D9606A40F400306062052032
:100B400084F82000012070BD20684068C007EDD106
:100B5000606270BD7047704770477047704770475C
:100B6000704730B50223437103689C6844F0010468
:100B70009C60002304E0056851F823402C605B1C56
:100B80009342F8D30168096801224271084630BDDA
:100B900010B5040002D0607910B106E0012010BD4C
:100BA00000202071204600F007F80220607101202B
:100BB0006071002010BD000008B500680649884239
:100BC00008D10648016841F480510160006800F4D2
:100BD0008050009008BD00000030024030380240D4
:100BE00090F83510022903D080214165012070471B
:100BF000052180F835100068016821F001010160CD
:100C00000020704770B5044600F006F90546601CE8
:100C100002D004480078044400F0FEF8401BA042D3
:100C2000FAD370BD800000202DE9F84FDFF890B1B5
:100C300000224FF001084FF0030A4FF00F090BF1AB
:100C4000040E00BF0B6808FA02F42340A3426ED1E1
:100C50004D68022D01D0122D0ED1D50800EB850C68
:100C6000DCF820505607F70E09FA07F6B5430E696F
:100C7000BE402E43CCF82060066855000F790AFA72
:100C800005FC07F0030726EA0C06AF403743076070
:100C90004E68012E05D0022E03D0112E01D0122E47
:100CA0000ED18768CE6827EA0C07AE403E438660C7
:100CB0004668A6430C79C4F300149440344344605E
:100CC000C4688E6824EA0C04AE402643C6604C68B3
:100CD000E4006FD53B4C256845F4804525602468C9
:100CE00022F0030504F480440094374C2E19D6F802
:100CF000084895072F0F09FA07F5AC43334DA84272
:100D000001D100252EE0324DA84201D1012529E074
:100D1000304DA84201D1022524E02F4DA84201D137
:100D200003251FE02D4DA84202D104251AE041E021
:100D30002B4DA84201D1052514E02A4DA84201D12E
:100D400006250FE0284DA84201D107250AE0274DCE
:100D5000A84201D1082505E0254DA84201D1092569
:100D600000E00A25BD402543C6F80858DBF80040DE
:100D70005D464E689C43F60300D51C432C60DEF8AC
:100D8000004075464E689C43B60300D51C432C605A
:100D90000B4D08352C684E689C43F60200D51C4369
:100DA0002C60074D0C352C684E689C43B60200D56C
:100DB0001C432C60521C102AFFF444AFBDE8F88F8E
:100DC000003C014044380240003001400000024035
:100DD0000004024000080240000C024000100240E3
:100DE0000014024000180240001C02400020024093
:100DF000002402400069084000D001207047426989
:100E000031EA020200D10904816170470AB18161AF
:100E100070470904FBE70000014880687047000044
:100E20008000002002488168027811448160704788
:100E3000800000200B4810B5016841F4007101608A
:100E4000016841F480610160016841F480710160D2
:100E5000032000F06FF8002000F006F800F024F8FE
:100E6000002010BD003C024070B50D4D04464FF40B
:100E70007A712878B1FBF0F00A490968B1FBF0F00B
:100E800001F023F948B9102C07D200222146501E48
:100E900000F030F800206C6070BD012070BD0000D3
:100EA000800000208C0000200A4808B5016841F449
:100EB00080410160006800F4804000900548001FF8
:100EC000016841F080510160006800F0805000909E
:100ED00008BD000044380240002809DB00F01F0272
:100EE000012191404009800000F1E020C0F800118C
:100EF00070470000F0B40E4B1B680C46C3F302238E
:100F0000C3F10705042D00D90425191D072901D2B5
:100F1000002300E0DB1E012606FA05F1491E2140F0
:100F200099409E40761E16403143F0BC02F0E5BF6A
:100F30000CED00E0064900F0070208684FF6FF03D9
:100F4000184040EA0220034A10430860704700003E
:100F50000CED00E00000FA057047006841620020D7
:100F60007047F0B50368586A39B19C6A4FF48276CD
:100F700000EB144400204D1E0AE040EA0240986253
:100F80000FE006EB8007DF59401C04EB1744C0B2AA
:100F9000A842F6D344EA02404FF4807202EB81018A
:100FA00058500020F0BDD0F8040401F0E2BFC1EBBE
:100FB000C10200EB8202D0F80404926C01F035BF4C
:100FC000C1EBC10200EB8202D0F80404D2F808227F
:100FD00001F08EBFD0F8040401F0CDBF70B5044617
:100FE0000B0601F00F00C0EBC00104EB81014FF0D4
:100FF00001024FF0000503D581F83D203C3103E0AC
:1010000081F8FD5101F5FE71087094F8BC030128C8
:1010100008D084F8BC23206802F024FB84F8BC5379
:10102000002070BD022070BD70B5044601F00F00B5
:101030006268904201D9012070BD0B0601F00F01DA
:10104000C1EBC10104EB81014FF001024FF000053B
:1010500003D581F83D203C3103E081F8FD5101F5D5
:10106000FE718D70087094F8BC03012808D084F8D4
:10107000BC23206802F0D2FC84F8BC53002070BD71
:10108000022070BD01F00F01C1EBC10100EB810036
:10109000D0F8140270472DE9F04104460F0601F024
:1010A0000F00C0EBC00104EB81014FF001064FF0CF
:1010B000000503D581F83D603C3103E081F8FD5126
:1010C00001F5FE7108708A60CB704A7802B1C88061
:1010D000022B00D10D7194F8BC03012809D084F8CB
:1010E000BC63206802F00EFA284684F8BC53BDE8C1
:1010F000F0810220FBE770B50C4601F00F05C5EB4F
:10110000C50100EB8101C1F81032C1F808220023AB
:10111000C1F8143281F8FD3181F8FC51036901F501
:10112000FE71012B00D10A612207027C006803D006
:1011300002F0CCFC002070BD02F0B8FBFAE770B5FD
:1011400004460D4601F00F006168884201D9012074
:1011500070BD29064FF000064FF0010207D5C0EB25
:10116000C00104EB810181F83D203C3107E0C5EB73
:10117000C50104EB810181F8FD6101F5FE718A7002
:10118000087094F8BC03012807D084F8BC232068B9
:1011900002F070FC280702D007E0022070BD217C1D
:1011A00004F57172206802F00DFC84F8BC63002025
:1011B00070BD70B50C4601F00F05C5EBC50100EB25
:1011C00081010B658A6400234B65012381F83D3062
:1011D00001F83C5F0369012B00D10A612207027C00
:1011E000006803D002F072FC002070BD02F05EFBCC
:1011F000FAE700002DE9FC5F05680446284602F086
:101200008EFD00287ED1206802F0B5FD002879D03F
:10121000206802F0B0FD800704D52068416901F024
:1012200002014161206802F0A6FD010304F571701E
:101230004FF0010A4FF0080B009075D5002620688A
:1012400002F078FD0746DFF808946BE0F80767D0F6
:10125000F1B2206802F087FD8046C00707D005EB99
:101260004611C1F808AB3146204601F00DF85FEA9F
:10127000087032D52068016C00EB46100191D0F85F
:10128000081B2269012A019A0FD0F24B9A4214D10D
:10129000090403D54FF40041C0F8081B204600F0B4
:1012A000C9FA206901280FD013E04A4505D909047D
:1012B00003D54FF40041C0F8081B204600F0BAFAED
:1012C00001984845EDD804E020680121009A02F019
:1012D00079FB05EB4611C1F808BB5FEAC86004D58D
:1012E00005EB46111020C1F8080B5FEA88600ED5A7
:1012F0002069012804D120680121009A02F062FBD4
:10130000202100E0A1E105EB4610C0F8081B5FEAD0
:10131000884005D505EB46104FF40051C0F8081B76
:101320007F08761C002F91D1206802F024FD400335
:101330004FF000095FD5206802F0F5FC0746002653
:1013400057E0F80753D0F1B2206802F0FAFC80466B
:10135000C00726D006F00F020AFA02F0D5F83428AA
:101360008243C5F8342805EB4610C0F808A9206967
:10137000012807D1C6EBC60004EB8000D0E911219B
:1013800011448164F1B22046FFF711FE2069012863
:1013900007D136B9206D20B920680121009A02F0EA
:1013A00011FB5FEA087003D505EB4611C1F808B9D7
:1013B0005FEAC86004D505EB46111020C1F80809A2
:1013C0005FEA486004D505EB46104021C0F80819D3
:1013D0005FEA887004D505EB46100221C0F80819B1
:1013E0005FEA086003D53146204600F0BBFF7F0866
:1013F000761C002FA5D1206802F0BDFC002811DA70
:10140000D5F8040820F00100C5F8040894F8F403A6
:1014100001282BD0204600F0F1F92068416901F045
:1014200000414161206802F0A6FC00050BD5D5F80B
:101430000808C00702D0204600F024FA206841695D
:1014400001F400614161206802F095FCC00461D59F
:10145000D5F8040820F00101C5F80418102120680F
:1014600002F03EFC00214FF67F321AE084F8F4933C
:1014700000212046FFF770FDCFE700BF05EB4110CC
:10148000C0F80829D0F8003923F40013C0F8003957
:10149000C0F8082BD0F8003B23F40013C0F8003B41
:1014A000491C60688842E9D8D5F81C0840F0011151
:1014B000C5F81C18206B002828460DD0D0F88408E9
:1014C00040F00B00C5F88408D5F8440840F00B0143
:1014D0002846C5F844180DE0D0F8140842F22B0154
:1014E0000843C5F81408D5F8100840F00B01284649
:1014F000C5F81018D0F8000820F4FE61C5F80018EF
:10150000217C2068009A02F05DFA2068416901F4AC
:1015100080514161206802F02EFC800415D52068BE
:1015200002F030F8206802F0EDFBE06000F05AFABB
:101530000146227B206802F059FC204600F048F961
:101540002068416901F400514161206802F013FCF8
:10155000C00634D52068816921F0100181612F6AAD
:1015600007F00F00C0EBC00004EB8006C7F3434058
:1015700006F5FE76022802D0062811D01AE047F6BA
:10158000F070074216D0C7F30A1217462846F168D2
:1015900002F0F5FBF0683844F060B069384408E0C8
:1015A00008222846009902F0EAFBB069C7F30A1145
:1015B0000844B0612168886940F0100088612068A3
:1015C00002F0D9FB000707D5204600F01BF921687F
:1015D000486900F008004861206802F0CCFBC002B6
:1015E00008D50021204600F037F82168486900F44A
:1015F00080104861206802F0BEFB800208D50021FF
:10160000204600F02DF82168486900F40010486178
:10161000206802F0B0FB400007D52046FFF7C3FC6E
:101620002068416901F080414161206802F0A3FB1C
:1016300040070AD520684568680702D52046FFF7AD
:10164000C9FC2068416829434160BDE8FC9F000057
:101650000A30544F0A31544FD0F8040401F0DABC78
:10166000D0F8040401F0D8BC2DE9F0418AB00400A0
:1016700005D094F8BD032668002520B108E00120BC
:101680000AB0BDE8F08184F8BC53204600F05EF853
:10169000032084F8BD03F06BC00500D425612068E9
:1016A00002F0FEF804F11001282288466846FEF791
:1016B000CAFD94E80F0001F07FFF0226C8BB00219D
:1016C000206802F06AFB002001270EE0C0EBC00199
:1016D00004EB810181F83D7001F83C0FC880CD70AA
:1016E0008D60CD60401CC0B24D6161688142EDD813
:1016F000002011E0C0EBC00104EB810181F8FD5135
:1017000081F8FC0181F8FF51C1F80452C1F8085278
:10171000401CC0B2C1F8105261688142EAD8282248
:1017200041466846FEF78FFD94E80F0001F0F2FF96
:1017300010B184F8BD63A2E784F8385084F8BD7313
:10174000206801F0DBFF00209AE7000010B586B0AA
:10175000044614216846FEF78FFD2068B0F1A04FC3
:101760002FD119480021026842F00102026000688E
:1017700000F0010005904FF4C05000900220CDE928
:101780000101032003900A20049069460F48FFF7E7
:101790004BFA0D48001D016841F0800101600A48C4
:1017A0001430016841F4804101600068002200F4B7
:1017B0008040059011464320FFF79CFB4320FFF734
:1017C0008BFB06B010BD0000303802400000024024
:1017D00070B50446C068012570B1022801D0FEF73B
:1017E0002CFE2946D4F8040401F067FCD4F8040464
:1017F000BDE8704001F027BC0025F2E7D0F80404F2
:1018000001F049BCD0F8040401F04BBC10B504460B
:1018100090F8BC0301280BD0012084F8BC0384F8A5
:101820003810206802F0D0FA002084F8BC0310BD04
:10183000022010BDD0F8042400F57171104601F0AB
:1018400048BC10B50446006894F8BC13012906D0C2
:10185000012184F8BC13A16A012902D008E002200A
:1018600010BDA169012903D0816B41F480318163EE
:10187000206801F037FF206802F01CFA002084F88D
:10188000BC0310BD10B50446D0F8040401F060FCA0
:101890002068D0F8001E41F00101C0F8001E206A47
:1018A000002804D00248016841F00601016010BD23
:1018B00010ED00E02DE9F0470E46050065D0DFF899
:1018C0001481D8F80000F7B200F00F00B04207D240
:1018D00088F80070D8F8000000F00F00B04254D132
:1018E00028683D4C810712D5400703D5206840F495
:1018F000E05020602878000703D5206840F460405D
:1019000020602068A96820F0F00008432060287853
:10191000C0072DD0304968680839012812D0022844
:1019200013D0032811D00968890700292DDA21680E
:1019300021F0030101432160FFF76EFA814641F275
:10194000883A0EE009688903EFE709688901ECE746
:10195000FFF762FAA0EB0901514502D90320BDE867
:10196000F0872068696800F00C00B0EB810FEFD1C0
:10197000D8F80010404601F00F01B14207D90770B6
:10198000006800F00F00B04201D00120E7E728789E
:10199000400705D52068E96820F4E050084320603E
:1019A0002878000706D52068296920F4604040EABD
:1019B000C100206000F01CF82168084AC1F303113F
:1019C000515CC840064908600020FFF74DFA00202E
:1019D000C5E70000003C024008380240B041000862
:1019E0008C00002001480068704700008C00002037
:1019F000154810B5006810F00C02144813D04110BF
:101A0000042A0FD0082A0ED10F4C241F2268236805
:101A100002F03F025B0207D52068C0F38810A0FBEC
:101A2000010106E0084610BD2168C1F38811A1FB41
:101A300000010023FEF7D6FB2168C1F30141491CD8
:101A40004900B0FBF1F010BD083802400024F4005A
:101A50002DE9F84F050076D02878DFF8F8B2BE4CB3
:101A6000C00749D0DBF800105846C1F381010129B5
:101A700008D00068C0F3810002280AD1201D006848
:101A8000400206D52068800336D568680028E2D079
:101A900032E06868B0F5803F10D0B0F5A02F206824
:101AA00010D020F480302060206820F48020206056
:101AB0006868A0B1FFF7B0F906460CE0206840F472
:101AC0008030F4E740F480202060F7E7FFF7A4F9C6
:101AD000801B642873D820688003F7D50CE0FFF7DB
:101AE0009BF9064605E000BFFFF796F9801B6428C6
:101AF000F0D820688003F7D42878DFF86082800768
:101B00004FF000093ED5DBF80010584611F00C0FDD
:101B100009D00068C0F3810002280BD18D48001F56
:101B20000068400206D42068800715D5E8680128BF
:101B300009D111E0E868B8B10120C8F80000FFF74A
:101B40006BF9064605E002E1FFF766F9801B022803
:101B5000C0D820688007F7D52068296920F0F800F0
:101B600040EAC10020600DE0C8F80090FFF754F98A
:101B7000064604E0FFF750F9801B02281FD82068B2
:101B80008007F7D42878000722D5724E7448696917
:101B90006C3671B101210160FFF73EF9074604E0A0
:101BA000FFF73AF9C01B022809D830688007F7D53B
:101BB0000EE0C0F80090FFF72FF9074605E083E03C
:101BC000FFF72AF9C01B02287ED830688007F7D4B7
:101BD0002878400768D5DFF87CA100270AF1380A89
:101BE000DAF80000C0000BD4DAF8001041F08051A0
:101BF000CAF80010DAF80000012700F080500090C9
:101C0000584E3068C00510D4306840F480703060A1
:101C1000FFF702F9009005E0FFF7FEF80099401A7F
:101C2000022851D83068C005F6D54A4EA8686836F3
:101C300001280FD00528306810D020F00100306056
:101C4000306820F004003060A868B8B1FFF7E4F80D
:101C500000900FE0306840F00100F4E740F004002D
:101C60003060F7E7FFF7D8F80099411A41F2883061
:101C7000814264D830688007F4D50EE0FFF7CCF8D5
:101C8000009007E0FFF7C8F80099411A41F2883048
:101C9000814254D830688007F4D42FB1DAF80010AC
:101CA00021F08051CAF80010A869C0B3DBF8001019
:101CB000C1F3810102294AD00228484607D0C8F85A
:101CC0006000FFF7A9F800E039E005463AE0474632
:101CD000C8F86000FFF7A0F8064604E0FFF79CF89C
:101CE000801B02282BD820688001F7D4D5E9070192
:101CF0000843A96A1C4A490802EB01416A6A41EAA1
:101D00008211084395F82C1040EA01611148001F28
:101D1000016001203866FFF77FF8054605E014E012
:101D2000FFF77AF8401B022809D820688001F7D510
:101D30000BE000BFFFF770F8401B022802D9032018
:101D4000BDE8F88F20688001F4D40020F8E7012076
:101D5000F6E7000008380240003802400000474221
:101D6000800E4742007000400000FFFF70470000F7
:101D700038B5016804464A688868C043430606D5FA
:101D8000C30704D1D3435B0601D4216C05E083076C
:101D900008D4D3431B0605D4616C01B02046BDE8CE
:101DA00030400847830603D5430601D5C30551D407
:101DB000D3439B064ED443060AD494F85130032BE8
:101DC00049D0636D43F004036365CB688B6800936F
:101DD000830609D4636D43F0010363658B68009348
:101DE0000B6823F040030B60C00506D4606D40F023
:101DF00008006065206880680090606D002829D028
:101E00002068416821F0E0014160012084F8510020
:101E1000900701D4D00722D02068416821F0030147
:101E20004160114DE06C40B10565E06CFEF7D8FEF5
:101E300018B1606D40F040006065A06C002809D0CA
:101E40000565A06CFEF7CCFE002803D0606D40F065
:101E50004000606538BDC8688868009038BD20467D
:101E6000FFF784FF38BD0000B125000870B50400FD
:101E700005D00025A56294F8510010B106E00120BC
:101E800070BD84F85050204600F030F8022084F8ED
:101E900051002068016821F040010160D4E901018E
:101EA0000843D4E903121143084361690843218BB5
:101EB00001F400710843E1690843216A0843A16AFB
:101EC000084321680860A069042101EA1040616AA2
:101ED0000843216848602068C16921F40061C1613C
:101EE0006565012084F85100002070BD10B586B0F2
:101EF000044614216846FEF7BFF917492068884256
:101F000028D116480021026842F48052026000681D
:101F100000F48050059011481438026842F0010224
:101F20000260006800F001000590F020009002209F
:101F3000CDE901010320039005200490694608487B
:101F4000FEF772FE002211462320FEF7D3FF232066
:101F5000FEF7C2FF06B010BD003001404438024019
:101F600000000240F0B400248568134604261DB921
:101F70004268B2F5827F0DD090F85020012A0FD030
:101F8000012280F8502090F851700022012F0AD0D1
:101F9000022431E080F85160F0BC0A4600F042B8FB
:101FA0000220F0BC704771B16BB180F8516042659E
:101FB00081638387C38702638286C2864264C16865
:101FC00019B10F4902E0012416E00E490164B5F58C
:101FD000004F04D101680B6823F480430B60016853
:101FE0004B6843F060034B6001680B685B0603D4E9
:101FF0000B6843F040030B6080F850202046D0E788
:1020000075260008952600080449884205D1C88F26
:10201000002802D102490120086070471C020020FC
:1020200000000020F0B590F850500024012D0CD095
:10203000012580F8505090F8515000264768012D36
:102040000BD0B7F5827F06D101E00220F0BD876892
:102050000FB9042D01D0022429E0A9B1A2B19BB18E
:1020600090F85150042D02D0052580F85150466556
:1020700001638386C38682638387C387C16829B16E
:102080000D4901640D4904E0012410E00C4901648C
:102090000C49416401684A6842F0E0024A60016804
:1020A0000A68520603D40A6842F040020A6080F8C7
:1020B00050602046F0BD000015240008752400087B
:1020C00045240008A5240008704710B5401EB0F153
:1020D000807F01D3012010BD4FF0E02460610F210B
:1020E000601701F00AFF0020A06107202061002096
:1020F00010BDFEE7F0B500230A24302537261F4621
:1021000011E000BFB4EB107F02D905EB107C01E0B9
:1021100006EB107C01F813C001EB430C00015B1CC3
:102120008CF80170DBB29342ECD3F0BD0D480C4942
:102130004FF440220160022141604FF04041816034
:102140000021C0E903124FF480124261017641760A
:1021500081760122C27601774177FEF7DEBB00006F
:1021600000640040F4010020F0B587B014216846F7
:10217000FEF782F81D480024016841F080010160EB
:10218000016801F080010591016841F001010160E1
:10219000016801F001010591016841F00801016049
:1021A000016801F008010591016841F040010160FA
:1021B00000680F4F00F040004FF4005605900022D9
:1021C00031463846FEF722FE0125CDE90054694626
:1021D00008480294FEF728FD0096CDE901546946AF
:1021E00038460394FEF720FD07B0F0BD30380240BA
:1021F000001802400000024009480849802201609E
:10220000002141608160C160016141618161C0E97B
:10221000082181620A21C162FFF728BE0030014017
:102220001C02002010B500220F49104800F0D6FD16
:1022300008B1FEF702F90E490C4800F0AFFF08B1F3
:10224000FEF7FBF80B49094800F0D4FB08B1FEF794
:10225000F4F8064800F0F8FF002803D0BDE810406D
:10226000FEF7EBB810BD000020000020B8020020EF
:102270006C01002070000020FEE770470148FEF767
:10228000B9BF0000540500202DE9F0410446006864
:102290000E46016C00EB4615D5F8080B2769202384
:1022A0004FF40042012F08D02C4FB9424FD1010406
:1022B00049D500BFC5F8082B4DE0DFF8A4C05FEAA0
:1022C000007E04F5717711D5614503D9000401D56D
:1022D000C5F8082B2046FFF7ADFA3A4601212068E1
:1022E00001F070FB0820C5F8080B34E05FEA806E4F
:1022F00002D5C5F8083B2EE010F0280F2BD1614520
:1023000001D90004D6D4C6EBC60004EB8000D5F892
:10231000102BD0F80412C2F312028A1AC0F8142249
:10232000D0F808221144C0F80812F1B22046FEF796
:1023300047FE86B9D4F8100268B93A4601212068F0
:1023400001F040FB07E0800601D5C5F8083BF1B27B
:102350002046FEF735FE0020BDE8F0810A31544FDB
:102360000A30544F2DE9F84F0E46C1EBC60100EB81
:10237000810481460568D4E914103C34884202D9AE
:102380000120BDE8F88F081AA168814200D20846F2
:10239000C01C870805EB46181BE000BFA0EB010A34
:1023A000A068504500D282460AF10300870899F8D8
:1023B000100000901FFA8AF3F2B22846E16801F09B
:1023C00089FDE16801EB0A00E060A16901EB0A0008
:1023D000A061D8F8180980B2B84205D3D4E9050144
:1023E000814201D20028D9D1D4E90501884208D818
:1023F00006F00F0101208840D5F834188143C5F854
:1024000034180020BDE770470148FFF7B1BC000059
:102410001C0200200168C968826B1180816B891CD5
:102420008163C18F491EC187C18F002909D101680D
:102430004A6822F040024A60C18E002901D100F0B2
:1024400049B870470168097B826B1170816B491C28
:102450008163C18F491EC187C18F002909D10168DD
:102460004A6822F060024A60C18E002901D100F062
:1024700031B87047016B02680988D160016B891C13
:102480000163C18E491EC186C18E002909D1016830
:102490004A6822F080024A60C18F002901D100F011
:1024A00019B87047016B026809781173016B491CF8
:1024B0000163C18E491EC186C18E002909D1016800
:1024C0004A6822F080024A60C18F002901D100F0E1
:1024D00001B8704738B50446214845F6C051006838
:1024E000B0FBF1F0642148430090FEF795FC0246F2
:1024F0002068416821F020014160009888B1401EA9
:102500000090206880688007F7D56421204600F09D
:1025100085F818B1606D40F020006065A06828B1B2
:1025200008E0606D40F020006065EEE72068C1685B
:1025300080680090616D012029B184F85100204627
:10254000FFF714FC38BD94F8511084F851000429A9
:10255000204602D0FFF7B8FD38BDFFF755FD38BD66
:102560008C00002038B504460068416821F0600105
:102570004160FEF751FC02466421204600F020F83D
:1025800018B1606D40F020006065A06818B920683F
:10259000C16880680090012084F85100606D0028B7
:1025A000204602D0FFF7E2FB38BDFFF72DFD38BD16
:1025B00010B5806B0021C187C186FFF7D7FB10BD26
:1025C000F8B5044640684FF48273984221D1A06860
:1025D0004FF48065B0F5004F01D0A8420AD12068C1
:1025E000066826F0400606606068984211D1A0682F
:1025F000A8420ED000920B4600228021204600F017
:1026000059F8002804D0606D40F020006065032078
:10261000F8BD00920B4600220121EFE738B50446D1
:102620001248134B0068B0FBF3F04FF47A73584331
:1026300000906068B0F5827F0DD10B4600920022B9
:102640008021204600F036F870B1606D40F0200027
:102650006065032038BD009830B1401E00902068AE
:102660008068C0430006F6D5002038BD8C000020ED
:1026700000366E010168C968826B1180816B891C0C
:102680008163C18F491EC187C18F002901D1FFF726
:1026900069BF70470168097B826B1170816B491CAF
:1026A0008163C18F491EC187C18F002901D1FFF706
:1026B00059BF70472DE9F0411D4617460E460446A6
:1026C000DDF8188008E0681C06D0FEF7A5FBA0EB3B
:1026D0000800A8420BD255B12068806836EA000095
:1026E00030D00020B842EED10020BDE8F081206853
:1026F000416821F0E00141606068B0F5827F0BD154
:10270000A068B0F5004F02D0B0F5806F04D120680A
:10271000016821F040010160A06AB0F5005F09D1B5
:102720002068016821F4005101602068016841F4CB
:1027300000510160012084F85100002084F850000D
:102740000320D2E70120CDE77047FEF76BBB000006
:1027500010B592B030216846FDF78EFD14210CA80B
:10276000FDF78AFD1948016841F080510160006859
:1027700000F0805011901648016821F4404141F466
:10278000804101600068022400F440401190012063
:102790000090000401908001CDE9064004206021F2
:1027A000CDE908010621CDE90A106846FFF750F986
:1027B0000F20CDE90C0480200E9040010F90109066
:1027C00000210CA8FFF776F812B010BD4038024087
:1027D000007000401048016841F4700101600F482A
:1027E000016841F0010101600C4A002108321160CA
:1027F00002680B4B1A400260031D0A4A1A60026805
:1028000022F48022026005480C300160024958061B
:10281000803908607047000088ED00E00038024011
:10282000FFFFF6FE103000242DE9F041D0F8983279
:10283000D0F89022DAB101EB810400EB840400258A
:10284000E6694EB1C1EBC10703EB87035B6CB6FBD6
:10285000F3F703FB176323B1C2F814520020BDE85D
:10286000F08100231A46E56100F07BFCF6E70220C8
:10287000F5E770B50546D0F8904200F087FBC4F844
:102880000C02D5F8900248B1D5F89412D4F804029D
:10289000CA6804F503719047002070BD022070BD26
:1028A00070B504460026812100F0B6FA002501210A
:1028B0002046E56200F0B0FA82212046C4F8585163
:1028C00000F0AAFA2564D4F8900248B1D4F8940232
:1028D00004F5247440688047206801F02DFB2560D2
:1028E000304670BD10B5D0E9A44159B194F800024A
:1028F000FF2807D08B6894F8012221469847FF20D3
:1029000084F80002002010BD0A21018000487047B1
:10291000940000204321018000487047E40000201B
:102920004321018000487047A0000020432101801E
:1029300000487047280100202DE9F0410446002698
:10294000007C4FF40077012590B3402302228121BF
:10295000204600F063FB4023E5620222012120466D
:1029600000F05CFB0823032282212046C4F8585162
:1029700000F054FB4FF40770256401F0E3FBC4F84A
:102980009002F8B10546D4F8940200688047002010
:10299000C5F81402C5F81802207CD5F8042298B1B5
:1029A00040230121204600F045FB3046BDE8F08180
:1029B000FFE73B4602228121204600F02FFB3B46E9
:1029C000E562CAE70126F0E73B46EAE710B5D0F832
:1029D000901269B1027C002AD1F8042205D040236C
:1029E000012100F027FB002010BD4FF40073F7E732
:1029F000022010BD02460220002902D00020C2F8A9
:102A000094127047D0F89002C0F80412002070476A
:102A1000D0F89002C0F81022C0F8081200207047C9
:102A20002DE9FC410546D0F8907200208DF8000099
:102A3000ADF80400064608780C4610F0600121D07D
:102A400020293BD1E288AAB10006607807D5D5F8E5
:102A500094128B6839469847E288394626E087F811
:102A60000002A07987F80102E2883946284600F082
:102A70006AF828E0D5F89412607800228B68214625
:102A8000984720E0607820B10A2809D00B2815D19A
:102A900010E095F87402032810D1022201A905E084
:102AA00095F87402032809D101226946284600F0EE
:102AB00064F808E095F87402032804D021462846FB
:102AC00000F036F802263046BDE8FC8110B5D0F89B
:102AD0009012A1B1D1F814220AB1012010BD012237
:102AE000C1F81422D1F810220263B1F8102293B277
:102AF000D1F80822812100F034FB002010BD022013
:102B000010BD10B5D0F88C2252689047002010BD3F
:102B1000134610B50A46002100F08CFA002010BDC3
:102B2000134610B50A46002100F01BFB002010BD23
:102B300010B50446802100F0F9FA2046BDE81040A7
:102B4000002100F0F3BA10B50323C0F84821C0F803
:102B50006C32C0F84C2113460A46002100F06AFA94
:102B6000002010BD10B505210023C0F86C121A46D4
:102B7000194600F05FFA002010BD10B50223C261B3
:102B8000C0F86C32026213460A46002100F0E9FAEE
:102B9000002010BD10B504210023C0F86C121A46A5
:102BA000194600F0DEFA002010BD000010B50A46FC
:102BB000024903A000F0E2F8004810BD5C090020C3
:102BC00043444320436F6E6669670000122008800B
:102BD000004870474000002010B50A46024903A093
:102BE00000F0CCF8004810BD5C09002043444320AD
:102BF000496E746572666163650000000420088098
:102C0000004870473C00002010B50A46024903A066
:102C100000F0B4F8004810BD5C09002053544D6921
:102C200063726F656C656374726F6E6963730000C5
:102C300010B50A46024903A000F0A0F8004810BDF4
:102C40005C09002053544D3332205669727475610B
:102C50006C20436F6D506F727400000010B51A2025
:102C600008800A480168001D0468001D00680818F3
:102C700009D008220649FFF73DFA05490422103120
:102C80002046FFF737FA0248801E10BD107AFF1F5A
:102C900056000020F8B5044648880D46010A082968
:102CA0004BD2DFE801F04A0409174A4A4048D4F8F9
:102CB0008812207C0A6832E0207C02260028D4F8A2
:102CC0008C0205D0C16A684688470146467041E0DB
:102CD000816AF8E7C0B206282FD2DFE800F00308C7
:102CE0000D12171CD4F88812207C4A6817E0D4F81B
:102CF0008812207C8A6812E0D4F88812207CCA6886
:102D00000DE0D4F88812207C0A6908E0D4F8881213
:102D1000207C4A6903E0D4F88812207C8A696946DD
:102D20009047014616E0207C38B9D4F88C02416BFC
:102D300068468847F5E7207C20B129462046FFF702
:102D4000F7FEF8BDD4F88C02016B6846884701464F
:102D500007204870BDF8000048B1EA8852B18242AD
:102D600000D90246ADF800202046FFF706FFE888AC
:102D70000028E6D12046FFF70DFFF8BD70B500230F
:102D800000281ED00446002502E06D1CEDB2641C34
:102D90002678002EF9D1022404EB45041480127821
:102DA000CA545B1C0322CA5400245B1C06E0CA54AC
:102DB0005B1CDAB28C54521CD3B2401C0278002A3D
:102DC000F5D170BD01004FF0000004D0012901D001
:102DD000022901D0022070470120704710B580B150
:102DE000D0F88C3213B10023C0F88C3209B1C0F88E
:102DF0008812012180F87412027000F0CBF80020D4
:102E000010BD022010BD10B5D0F89802FEF70CF9E5
:102E1000BDE81040FFF7D6BF10B5D0F89802FEF716
:102E2000DDF8BDE81040FFF7CDBF2DE9F0411746B2
:102E3000044651B1D4F88C0242691AB194F8740274
:102E4000032851D00220BDE8F081D4F86C3200256F
:102E500004F11400022B03D0042B3AD0C3B33CE09E
:102E6000D0E903639E4207D9F11AC1608AB239469C
:102E70002046FFF755FE12E08068B0FBF3F103FB3C
:102E8000110199B9984211D3D4F8701288420DD229
:102E9000002211462046FFF743FEC4F8705200237B
:102EA0001A461946204600F0C5F816E0D4F88C0200
:102EB000C16829B194F87402032801D120468847DB
:102EC0008021204600F032F92046FFF74BFE04E057
:102ED000FFE78021204600F029F994F878020128C4
:102EE00004D184F8785201E0204690470020AAE7F8
:102EF00070B51546044649B1D4F88C0282691AB1FE
:102F000094F87402032830D0022070BDD4F86C12FB
:102F100004F5A070032902D005291ED027E0D0E9CE
:102F200003218A420BD9531AC3600846834200D357
:102F300003469AB229462046FFF7EAFD17E0D4F887
:102F40008C02016929B194F87402032801D120464A
:102F500088472046FFF71EFE09E000200146C4F81E
:102F60006C02204600F0E2F801E020469047002085
:102F700070BD0020704710B5012180F87412D0F8A0
:102F80008C22017952689047002010BDD0F8980239
:102F9000FEF778B810B5017839BB15490222C1F89F
:102FA0000404C0F898124FF0A04008600420486064
:102FB0000020C1E90320C1E9062008624862C86216
:102FC00008630846FEF750FB08B1FDF736FA80218A
:102FD0000748FDF7C2FF402200210548FDF7C1FF69
:102FE000802201210248FDF7BCFF002010BD000037
:102FF000540500200A0601F07F01D0F89802C1EBC9
:10300000C10100EB810002D590F83E00704790F8B6
:10301000FE017047002070470020704710B51C4625
:103020001346D0F898022246FEF735F8BDE8104066
:10303000FFF7C8BE10B5D0F89802FEF75CF8BDE8FF
:103040001040FFF7BFBE70B5002204464023114672
:10305000FFF7E4FF40260125C4F850613346002203
:1030600080212046C4F84451FFF7D8FF6662A5616D
:1030700084F874520020C4F86C026060C4F87C02CA
:10308000D4F8900228B1D4F88C020021426820467E
:103090009047002070BD90F8751280F874120020DF
:1030A000704710B590F87412032904D1D0F88C122F
:1030B000C96901B18847002010BD01740020704724
:1030C00010B5D0F89802FEF7A1FBBDE81040FFF75D
:1030D00079BE70B5044600F52070054600F04AF848
:1030E0000120C4F86C02B4F88602C4F8700294F8A7
:1030F000800210F01F010AD001290DD0022910D042
:1031000000F08001204600F011F8002070BD294633
:10311000204600F09EF8F8E72946204600F0CAF95C
:10312000F3E72946204600F01DF9EEE710B5D0F888
:103130009802FEF704F8BDE81040FFF743BE10B553
:10314000D0F89802FEF77DFBBDE81040FFF73ABECD
:1031500090F8741280F87512042180F8741200201F
:10316000704710B5D0F89802FEF723F8BDE810407C
:10317000FFF728BE0A7802704A7842708A78CB78C6
:1031800002EB032242800A794B7902EB0322828010
:103190008A79C97902EB0121C1807047024600207B
:1031A00011B1C2F88C1270470220704710B5D0F8E8
:1031B0008C2202241AB11268904700B900242046DC
:1031C00010BD000070B50E461E4D8978044629706A
:1031D000012931D894F8740202280BD003280FD0AB
:1031E00031462046FFF7A4FC29782046BDE8704010
:1031F000FFF787BCD9B10320616084F8740209E04D
:1032000071B16068884212D0C1B22046FFF779FCE4
:10321000297861602046FFF7C9FF02280CD006E03C
:10322000022084F8740220466160FFF76AFC2046A1
:10323000BDE87040FFF7AEBC31462046BDE87040A7
:10324000FFF776BC9000002010B5FFF778FF002054
:1032500010BD2DE9F0410A78002612F0600208D076
:10326000202A01D0402A70D1D0F88C229268904751
:103270006DE04B78002201250A2B66D2DFE803F0CF
:10328000405D6557650805652C29FFF703FD5EE085
:1032900004468888D8B9C888C8B94888802816D212
:1032A00000F07F0794F87402032810D084F8767237
:1032B00039462046FFF704FF2046FFF76BFC1FB19D
:1032C000022084F8740242E084F874523FE0204601
:1032D0003BE0FFF777FF3AE0CB88012B35D190F840
:1032E0007432012B04D0022B02D0032B2DD104E029
:1032F0008260012200F1080116E00122011D13E0A5
:1033000090F87422012A03D0022A01D0032A1CD18A
:10331000CA88022A19D1C560D0F87C1209B10321EC
:10332000C160022200F10C01FFF727FC0FE0498881
:1033300001290CD1C0F87C5211E090F87432012BB5
:1033400008D0022B06D0032B04D0FFF7F1FB304648
:10335000BDE8F08149880129F9D1C0F87C22FFF746
:1033600019FCF4E72DE9F0410A46044610780027DD
:10337000097910F060030AD0202B01D0402B50D1E6
:10338000D4F88C0211468368204698478FE0C0F33A
:103390004110012806D05078D0B301282AD0032844
:1033A0003FD107E0D4F88C02114683682046BDE87F
:1033B000F041184794F87402022802D0032872D111
:1033C0000AE071B380296ED02046FFF7AFFE80215E
:1033D0002046FFF7ABFE6AE0508838B931B180294A
:1033E00004D0D08810B92046FFF7A0FE2046FFF792
:1033F000D1FB5CE094F874020228E2D0032852D199
:10340000508898BB4806F1D02046FFF7FCFCEDE75A
:10341000FFE794F874020026022803D0032842D163
:1034200012E040E009B180293DD1080601F07F009B
:1034300000EB800004EB800101D5143101E001F5BF
:10344000A07102220E602AE0080601F00F0000EBD6
:10345000800004EB80000AD5806920B301F07F0072
:1034600000EB800004EB800514350BE01FE0D0F882
:103470004401C0B101F07F0000EB800004EB800547
:1034800005F5A07541B1802906D02046FFF7B2FDB1
:1034900010B10120286000E02E600222294620465B
:1034A000FFF76BFB03E011462046FFF741FB384670
:1034B000BDE8F08170B5054608780C4610F0600054
:1034C00003D0202801D0402816D195F87402012895
:1034D00003D0022801D003280ED1207901280BD86F
:1034E000D5F88C02826828469047E188014306D1CE
:1034F0002846FFF74FFB02E02846FFF719FB0020A4
:1035000070BD000070B50A78012302F00F054E78F7
:10351000AB401B4CD0F81C58012E17D045EA034392
:10352000C0F81C3800EB4210D0F8002B12040BD46A
:10353000D0F8002B0B89C978C3F30A031A4344EA75
:1035400081410A43C0F8002B002070BD9BB21D438F
:10355000C0F81C5800EB4210D0F800391B04F3D41B
:10356000D0F800390D89C978C5F30A0589042B43C1
:1035700041EA82510B432343C0F80039E4E70000DD
:1035800000800010D0F800196FF30A01C0F800198C
:10359000D0F80818C1F34101022905D1D0F800196B
:1035A00041F00301C0F80019D0F8041841F480710B
:1035B000C0F804180020704770B5044606990A9EAA
:1035C000049D0D98012916D0E06840F04000E060AD
:1035D000204600F02BF8A16B1EB321F48031A163CB
:1035E000012D07D1A16841F00601A160A16841F059
:1035F0002001A16070BDA16B21F48031A163E1685D
:10360000094A1140E160E16821F44011E1600128BC
:1036100003D1E06840F48010E060204600F006F836
:10362000DEE741F48031DAE7BFFFBDFF01220C493C
:1036300002E0521C8A420BD80369002BF9DA0269B6
:1036400042F001020261012204E0521C8A4201D9C7
:10365000032070470369DB07F7D1002070470000A3
:10366000400D030030B50B784D78012203F00F04B4
:1036700002FA04F4012DD0F83C5817D025EA04448E
:10368000C0F83C48D0F81C48097801F00F018A4086
:1036900024EA0241C0F81C1800EB4310D0F8001BCC
:1036A0000E4A1140C0F8001B002030BDA4B2A54353
:1036B000C0F83C58D0F81C48097801F00F018A4046
:1036C00091B28C43C0F81C4800EB4310D0F80019AD
:1036D000034A1140C0F80019E6E700000078F3EF54
:1036E000007833EC10B5D0F8041821F00201C0F8CE
:1036F00004180320FDF786FA002010BD10B5D0F89D
:10370000041841F00201C0F804180320FDF77AFA0A
:10371000002010BD2DE9F04F0025DDE90BCB0E4652
:103720000446DDF84090099F2846294604EB8002B4
:10373000C2F80411401C0F28F8D3B9F1000F20463D
:1037400018D0006820F400122260A06B40F4002220
:10375000A26308468846C4F8000ED4F80018204634
:10376000C4F80018BCF1010F10D0D0F8001841F0D7
:10377000030110E0806B40F40012A263A06B20F400
:103780000022A263A06B20F48022E1E7D0F80018A9
:103790000BB141F00101C0F80018102100F0A0FAAF
:1037A00000B10125204600F08BFA00B1012540460A
:1037B000C4F81088C4F81488C4F81C8800214FF09D
:1037C00000634FF090484FF67F3A14E004EB41124B
:1037D000D2F800C9BCF1000F06DA11B1C2F80089B5
:1037E00004E0C4F8003901E0C2F80009C2F8100989
:1037F000C2F808A9491C8E42E8D8002115E000BF94
:1038000004EB4112D2F800CBBCF1000F06DA11B183
:10381000C2F8008B04E0C4F8003B01E0C2F8000BE2
:10382000C2F8100BC2F808AB491C8E42E8D8D4F895
:10383000101821F480722146C4F81028012F08D1F5
:10384000134AC1F83028D1F83018124A1143C4F88D
:103850003018A0616FF0804060611FB9A06940F02E
:103860001000A061A0690C490843A061BBF1000FE2
:1038700003D0A06940F00800A061B9F1010F03D1A5
:10388000A06906490843A0612846BDE8F08F000002
:10389000000180000300010000383C80040000406B
:1038A000816821F0010181600020704770B50D78BA
:1038B0004E78434CEBB200EB4313012E1FD0D3F8EC
:1038C000100B6FF31200C3F8100BD3F8100B20404D
:1038D000C3F8100B486908B188684861D3F8100B29
:1038E00040F40020C3F8100BD3F8100B8C68C4F31D
:1038F00012042043C3F8100B012A55D058E04E693A
:10390000002ED3F8106932D06FF31206C3F8106995
:10391000D3F810692640C3F810694E698C68A64236
:1039200000D94C61D3F8104944F40024C3F810497D
:10393000D3F810494E69C6F312063443C3F8104950
:10394000012A22D000EB4512D2F8003943F004439B
:10395000C2F800394A6932B3D0F83428097801F046
:103960000F03012199400A43C0F8342826E026407D
:10397000C3F81069D3F8104944F40024C3F810497F
:10398000D3F810496FF31204D8E7096919B100EBB5
:103990004512C2F8141900EB4510D0F8001941F097
:1039A0000441C0F8001909E0C86808B1C3F8140B55
:1039B000D3F8000B40F00440C3F8000B002070BDAA
:1039C000FFFF07E010B5036C134CA34203D9D0F8F6
:1039D000003B002B1EDB0023C0F8103BD0F8103B4F
:1039E00043F40023C0F8103BD0F8103B43F0180319
:1039F000C0F8103BD0F8103B43F0C043C0F8103B78
:103A0000012907D1C0F8142BD0F8001B41F0802108
:103A1000C0F8001B002010BD0A30544F4A780B78C4
:103A2000012A00EB43100BD0D0F8002B22F4001237
:103A3000C0F8002BC978032914D0022912D017E04E
:103A4000D0F8002922F40012C0F80029C97803290F
:103A500001D002290CD1D0F8001941F08051C0F8F2
:103A6000001905E0D0F8001B41F08051C0F8001BA0
:103A7000002070470A784B78D1B200EB4110012B3F
:103A800012D0D0F8001B002906DB2AB1D0F8001BA9
:103A900021F08041C0F8001BD0F8001B41F4001158
:103AA000C0F8001B00207047D0F80019002906DB81
:103AB0002AB1D0F8001921F08041C0F80019D0F8DF
:103AC000001941F40011C0F80019EBE7F8B50C78C3
:103AD0004F78774DE3B26FF0604600EB4313012F50
:103AE00026D0D3F8104B6FF31204C3F8104BD3F861
:103AF000104B2C40C3F8104B4C69002C74D08D68CF
:103B00002C44641EB4FBF5F4D3F8105BA4B206EAAF
:103B1000C4463543C3F8105BD3F8105B8E68664328
:103B2000C6F312042543C3F8105B012A71D0A6E046
:103B30004F691FB3D3F810796FF31207C3F81079E8
:103B4000D3F810792F40C3F810794F698D682F444E
:103B50007F1EB7FBF5F506EAC545D3F81069354376
:103B6000C3F81059D3F810594E69C6F312063543FD
:103B7000C3F81059CD78012D10D01BE0D3F810698F
:103B80002E40C3F81069D3F8105945F40025C3F846
:103B90001059D3F810596FF3120509E0D3F81059F2
:103BA00025F0C045C3F81059D3F8105945F0005519
:103BB000C3F81059012A18D000EB4413D3F8004978
:103BC00044F00444C3F80049CC78012C2FD04A6952
:103BD00062B3D0F83428097801F00F03012199402D
:103BE0000A43C0F8342860E036E00A691AB100EBF5
:103BF0004413C3F81429C97801290FD1D0F8081843
:103C0000C90500EB4411D1F8002903D442F0005259
:103C100002E030E042F08052C1F8002900EB44108D
:103C2000D0F8001941F00441C0F800193DE0D0F887
:103C30000848E405D3F8004902D444F0005401E0F8
:103C400044F08054C3F8004900928A8A93B20A78FB
:103C5000C96800F03FF928E0D3F8104B8D68C5F330
:103C600012052C43C3F8104BD3F8104B44F4002436
:103C7000C3F8104B59E7CA680AB1C3F8142BC978C6
:103C800001290CD1D0F80808C005D3F8000B02D4E4
:103C900040F0005001E040F08050C3F8000BD3F832
:103CA000000B40F00440C3F8000B0020F8BD0000FA
:103CB000FFFF07E0816841F001018160002070474B
:103CC000002110220261054A491C914201D90320BA
:103CD00070470369DB06F7D400207047400D0300EE
:103CE0000022202343EA811101610549521C8A42C6
:103CF00001D90320704703699B06F7D40020704761
:103D0000400D0300D0F8080810F0060004D0022887
:103D100003D0062801D00F20704702207047406969
:103D200000F001007047D0F81818D0F81C080840BF
:103D300080B27047D0F81818D0F81C080840000C62
:103D4000704710B5D0F81038D0F8342801F00F04BF
:103D500000EB4110E24002F00102D0F8080943EA0A
:103D6000C212104010BD00EB4111D1F8081BD0F871
:103D70001408084070474169806908407047D21CA8
:103D800010B59308002200F5805002E00468521C30
:103D900010C19A42FAD3084610BD10B5C26822F08D
:103DA000C042C260012902D029B1012010BDC16802
:103DB00041F0005102E0C16841F08041C160322011
:103DC000FCF720FF002010BDD0F8002822F4FE628E
:103DD000C0F80028D0F800284FF4FE6303EA011170
:103DE0000A43C0F80028002070470000022A3ED194
:103DF000264A274B0A449A4201D20F2138E0254A2D
:103E0000254B0A449A4201D20E2131E0234A244B29
:103E10000A449A4201D20D212AE0224A224B0A4446
:103E20009A4201D20C2123E0204A214B0A449A42B3
:103E300001D20B211CE01F4A1F4B0A449A4201D2B7
:103E40000A2115E01D4A1E4B0A449A420FD31D4A0F
:103E50001D4B0A449A4201D2082109E01B4A114431
:103E60001B4A914201D2072102E0062100E009210C
:103E7000C26822F47052C260C2684FF4705303EA01
:103E800081210A43C260002070470000405327FF91
:103E900000350C00401E1BFF40420F0000DC0BFFF2
:103EA000804F1200808CF9FE20D6130060B6E5FE2C
:103EB00060E3160000D3CEFE40771B00C05BB3FE6C
:103EC000C091210000CA91FE20753800E05459FECF
:103ED000E09C410010B5029C64B9DB1C9C0800EB1F
:103EE0000230002300F5805002E004C902605B1C30
:103EF000A342FAD3002010BDFEE70907090E0028EF
:103F000004DB00F1E02080F80014704700F00F009F
:103F100000F1E02080F8141D704702E008C8121F6D
:103F200008C1002AFAD170477047002001E001C1A2
:103F3000121F002AFBD1704710B5002821D0114B69
:103F40000022001F196803E0814203D80A4649682D
:103F50000029F9D152B11368841A9C4204D1006837
:103F600018441060104602E0506000E0186039B15B
:103F700002680B1A934203D10B681A440260496825
:103F8000416010BDA40100208CB018216846FCF7E8
:103F900073F9142106A8FCF76FF9FCF74BFFFEF745
:103FA000D7FBFEF7E1F8FEF7C1F862496048086008
:103FB0000846FCF7EDFDFEF71FF9FEF733F95E4802
:103FC000002444F6A00144610461C0E90014846047
:103FD0000121C161C460016201468038FCF7A4FA86
:103FE00055488038FCF78AFD534802218038FCF799
:103FF00025FADFF844914F4EDFF84081DFF840B1F9
:10400000A9F1B0094FF4005A183E4B4918229839CB
:1040100001F14000FDF7A6FF3068012802D1FCF74E
:1040200099F93460012145464046FCF7E3FE01283A
:1040300010D1706801280DD14FF4FA70FCF7E2FD41
:1040400001212846FCF7D6FE20B93B481821B0389C
:10405000FCF7DCF9384B0021B03B03F1D802A2F1A8
:10406000A800FCF7E8FA7068012826D1002108466C
:104070006B464D462A185778528852BA67F31F424A
:104080002F5C001D42EA076243F82120491C0629E3
:10409000F0DB062219462748FCF763FD88B10025AE
:1040A0004FF4FA7751465846FCF7A9FE3846FCF71C
:1040B000A9FD6D1C0A2DF5DB74606420FCF7A2FDE0
:1040C000A3E7574651465846FCF799FE4FF4FA606D
:1040D000FCF798FD39465846FCF791FE164F002034
:1040E000C83F295C3954401C1428FADB00210846DB
:1040F00006AD3A185378528852BA63F31F423B5CBC
:10410000001D42EA036245F82120491C0529F0DB25
:10411000052229460748FCF724FD14215FF0180208
:1041200020FA02F37B54491C083A1829F8DBC3E74C
:1041300000300240180000207402002000000240FD
:1041400000180240F0B50B30154D20F00701002497
:10415000144A0FE003688B420BD38B4205D95E1AD9
:1041600043184768C3E9006700E04368136002C072
:1041700004E0021D10680028ECD12046002802D17E
:10418000286808B10020F0BD064A07481060074AB9
:10419000121A22F00702C0E9002401202860D7E7A4
:1041A000A8010020A4010020E40B0020E00F002063
:1041B00000000000000000000102030406070809D7
:1041C000E041000800000020AC010000F0020008FF
:1041D000A4420008AC010020341200002A3F00086D
:1041E000012013CD2B1B08FD0413092C1B083104DF
:1041F0001A5D041AAD101AD9041704030904120138
:1042000014020202164083044057260201020301F1
:10421000031A1A0313D1031B08CD041AC9041AF593
:1042200004192F1182105324F4130A0632022A4073
:104230001C1C090243571125C03209041B01020B43
:10424000130524161001052401100901042402029B
:10425000052406170107058203081C1009048D3286
:104260000A1D07050102432C070581070938442A66
:1042700040072A8107112B0907440A3B04441339DC
:10428000291408A1281408212A42081AE50C1A2921
:10429000041A7304C11A21281A15041A2D041A09C4
:0442A0000481000095
:04000005080001AD41
:00000001FF
