:020000040800F2
:10000000F00400209D01000833140008511300087B
:1000100031140008A9020008F115000800000000D2
:10002000000000000000000000000000251500088E
:10003000B902000800000000351400082715000868
:10004000B7010008B7010008B7010008B7010008B0
:10005000B7010008B7010008B7010008B7010008A0
:10006000B7010008B7010008B7010008B701000890
:10007000B7010008B7010008B7010008B701000880
:10008000B7010008B7010008B7010008B701000870
:10009000AD020008B7010008B7010008B701000869
:1000A000B7010008B7010008B7010008B701000850
:1000B000B7010008B7010008B7010008B701000840
:1000C000B7010008B7010008B7010008B701000830
:1000D000B7010008B7010008B7010008B701000820
:1000E000B7010008B7010008B7010008B701000810
:1000F000B7010008B7010008B7010008B701000800
:10010000B7010008B7010008B7010008B7010008EF
:10011000B7010008B7010008B7010008B7010008DF
:10012000B7010008B7010008B7010008B7010008CF
:10013000B7010008B7010008B7010008B7010008BF
:10014000B7010008B7010008B7010008B7010008AF
:10015000B7010008B7010008B7010008B70100089F
:10016000B7010008B7010008B7010008B70100088F
:10017000B7010008B7010008B7010008000000003F
:10018000B7010008B7010008DFF80CD000F07AF8DA
:100190000048004731160008F00400200648804758
:1001A00006480047FEE7FEE7FEE7FEE7FEE7FEE75C
:1001B000FEE7FEE7FEE7FEE79D150008890100085F
:1001C0002DE9F05F0546002092469B46884606468C
:1001D000814640241BE0284641464746224600F01F
:1001E00041F853465A46C01A914110D31146184659
:1001F000224600F028F82D1A67EB01084F462246E8
:100200000120002100F01FF817EB00094E41201ECD
:10021000A4F10104DFDC484631462A464346BDE8E6
:10022000F09FD2B201E000F8012B491EFBD27047CB
:100230000022F6E710B513460A4604461946FFF7B2
:10024000F0FF204610BD202A04DB203A00FA02F11C
:10025000002070479140C2F1200320FA03F31943B4
:1002600090407047202A04DB203A21FA02F0002156
:10027000704721FA02F3D040C2F1200291400843B6
:1002800019467047064C074D06E0E06840F0010350
:1002900094E8070098471034AC42F6D3FFF778FF94
:1002A0000017000820170008FEE70000014800F0D2
:1002B00012B900002C000020704790F82020012A7D
:1002C00007D0022A05D0416A41F480214162012011
:1002D0007047006842690A4342610020704700008D
:1002E00010B590F82020012A07D0022A05D0416AD3
:1002F00041F480214162012010BD3B48D0F800222A
:1003000042F00102C0F80022D0F8002222F47C5210
:10031000C0F80022D0F800224B6A42EA0322C0F85B
:1003200000220A7D02F01F0301229A40D0F81C32FD
:100330009343C0F81C32CB69B3B9D0F80C32934365
:10034000C0F80C328C894B6864F31F434C6900EB96
:10035000C404C4F840320C890B6864F31F434C6931
:1003600000EBC404C4F84432CB69012B16D1D0F899
:100370000C321343C0F80C320C884B6864F31F43F3
:100380004C6900EBC404C4F840320C89CB6864F3B8
:100390001F434C6900EBC404C4F844328B69002B42
:1003A000D0F804320ED01343C0F804320B69002B8E
:1003B000D0F8143208D01343C0F81432096A012966
:1003C00004D008E09343EFE79343F5E7D0F81C121D
:1003D0001143C0F81C12D0F8001221F00101C0F83E
:1003E0000012002010BD000000640040704730B5CE
:1003F00090F82040012C05D0022C03D0416A41F432
:1004000080215DE00468002955D02469A40754D0F8
:100410004FF4D874056804EB01142D5915F0040548
:10042000956005682D594ED0ED08556005682C592A
:10043000C4F34004D4604FF4DA74056804EB01148B
:100440002D5905F00F05156105682D59C5F30725D0
:10045000956105682C59240C54614FF4DC720468D2
:1004600002EB0112A4581C700468A458240A5C70A2
:100470000468A458240C9C700468A258120EDA7008
:100480004FF4DE72046802EB0112A4581C71046878
:10049000A458240A5C710468A458240C9C71046854
:1004A000A258120EDA71006881B1016941F0200191
:1004B0000161002030BDE468A8E7416A41F4001101
:1004C0004162012030BD6D0D1560AFE7C16841F09C
:1004D0002001C160EDE72DE9F05F054600680024CA
:1004E0004669D0F804908768D0F80CB0D0F810A016
:1004F000D0F81880F10748D0F90714D001218160A5
:10050000B80703D5284600F0F2F90CE0780702D5C9
:100510004FF4006407E0380702D54FF4805402E03E
:10052000284600F0E3F9F80516D529684FF48070E5
:100530008860B80503D5284600F0DBF90CE07805A3
:1005400002D544F4005407E0380502D544F4804451
:1005500002E0284600F0CCF9F80316D529684FF4DC
:1005600080308860B80303D5284600F0C4F90CE059
:10057000780302D544F4004407E0380302D544F47C
:10058000803402E0284600F0B5F9300707D55FEA6D
:10059000CB6004D52968102044F40074C86070074B
:1005A0004FF0080707D55FEA0B7004D52868C760CD
:1005B000284600F057F9B00706D52868C0688007BC
:1005C00002D0284600F050F9700607D55FEACA60ED
:1005D00004D52968102044F480640861B00607D56A
:1005E0005FEA0A7004D528680761284600F04EF9D2
:1005F000F00606D528680069800702D0284600F07A
:1006000046F9B00308D55FEAC96005D5296810200E
:100610004860284600F03CF9F00307D55FEA09700E
:1006200004D528684760284600F066F9300446D5AE
:100630005FEA497040D5F00504D55FEAC87001D083
:1006400044F00104B00504D55FEA887001D544F098
:100650000204700504D55FEA487001D544F0040433
:10066000300529D518F0700F26D008F0700040280A
:1006700015D006DC102809D020280AD0302816D141
:100680000AE050280ED0602811D10EE044F0080492
:100690000DE044F010040AE044F0200407E044F0C8
:1006A000400404E044F0800401E044F480742868CD
:1006B000816921F070018161296804204860002C63
:1006C00005D0686A204368622846FFF78FFEBDE8C0
:1006D000F09F70B5040003D094F8200010B104E03E
:1006E000012070BD204600F081F82068016821F0EB
:1006F0000201016000F0FEF90546052604E000F065
:10070000F9F9401B0A2811D8206840688007F6D400
:100710002068016841F00101016000F0EBF9054635
:100720000BE000F0E7F9401B0A2806D9606A40F4A4
:100730000030606284F82060D2E720684068C0071B
:10074000EFD0207E0128206801683DD021F0800193
:100750000160607E01282068016838D021F04001E6
:100760000160A07E01282068016833D021F02001BB
:100770000160E07E0128206801682ED041F0100160
:100780000160207F01282068016829D021F008013C
:100790000160607F01282068016824D021F00401F5
:1007A0000160D4E902010843D4E90412114308436B
:1007B0006168491E08432168C86100206062012009
:1007C00084F82000002070BD41F08001C0E741F0B6
:1007D0004001C5E741F02001CAE721F01001CFE751
:1007E00041F00801D4E741F00401D9E710B586B023
:1007F000044614216846FFF71BFD1749206888420C
:1008000027D116480021026842F000720260006899
:1008100000F00070059011481038026842F008029C
:1008200002600068022200F0080005900320CDE974
:100830000210CDE90002092004906946084800F042
:100840006FF800221146142000F0C2F9142000F0C5
:10085000B1F906B010BD000000640040403802400D
:10086000000C024070470000074A10B5054B0021FC
:10087000A2F18000FFF7BBFD02490120091F0860BB
:1008800010BD000004000020AC000020704770473D
:100890007047000070B5044690F82000012804D08D
:1008A000606A40F40020606218E0022084F82000B2
:1008B0002068016821F00101016000F01BF9054684
:1008C0000EE000BF00F016F9401B0A2808D9606A44
:1008D00040F400306062052084F82000012070BDE3
:1008E00020684068C007EDD1606270BD70477047F6
:1008F00070477047704770477047000070B50446F6
:1009000000F0F8F80546601C02D004480078044462
:1009100000F0F0F8401BA042FAD370BD1C0000208C
:100920002DE9F84FDFF87CB100224FF001084FF0BD
:10093000030A4FF00F090BF1040E00BF0B6808FA11
:1009400002F42340A3426ED14D68022D01D0122D36
:100950000ED1D50800EB850CDCF820505607F70EB9
:1009600009FA07F6B5430E69BE402E43CCF8206065
:10097000066855000F790AFA05FC07F0030726EA16
:100980000C06AF40374307604E68012E05D0022E9B
:1009900003D0112E01D0122E0ED18668CF6826EA20
:1009A0000C06AF40374387604668A6430C79C4F312
:1009B0000014944034434460C6688C6826EA0C06F0
:1009C000AC403443C4604C68E40065D5364C2568BF
:1009D00045F480452560246822F0030504F4804432
:1009E0000094324C2E19D6F8084895072F0F09FAB3
:1009F00007F5AC432E4DA84201D1002524E02D4D32
:100A0000A84201D101251FE02B4DA84201D10225AA
:100A10001AE02A4DA84201D1032515E0284DA8422D
:100A200002D1042510E037E0264DA84201D105256A
:100A30000AE0254DA84201D1062505E0234DA84234
:100A400001D1072500E00825BD402543C6F8085818
:100A5000DBF800405D464E689C43F60300D51C431E
:100A60002C60DEF8004075464E689C43B60300D506
:100A70001C432C600B4D08352C684E689C43F602D5
:100A800000D51C432C60074D0C352C684E689C43E8
:100A9000B60200D51C432C60521C102AFFF44EAF46
:100AA000BDE8F88F003C014044380240003001406E
:100AB000000002400004024000080240000C024016
:100AC000001002400014024000180240001C0240C6
:100AD0000069084000D001207047426931EA0202F3
:100AE00000D10904816170470AB18161704709042E
:100AF000FBE7000001488068704700001C000020F0
:100B00000248816802781144816070471C0000200F
:100B10000B4810B5016841F400710160016841F4AF
:100B200080610160016841F480710160032000F080
:100B30006FF8002000F006F800F024F8002010BD47
:100B4000003C024070B50D4D04464FF47A71287890
:100B5000B1FBF0F00A490968B1FBF0F000F0E4FBEA
:100B600048B9102C07D200222146501E00F030F860
:100B700000206C6070BD012070BD00001C000020D2
:100B8000280000200A4808B5016841F4804101604E
:100B9000006800F4804000900548001F016841F0A3
:100BA00080510160006800F08050009008BD000096
:100BB00044380240002809DB00F01F020121914067
:100BC0004009800000F1E020C0F8001170470000EB
:100BD000F0B40E4B1B680C46C3F30223C3F10705A8
:100BE000042D00D90425191D072901D2002300E096
:100BF000DB1E012606FA05F1491E214099409E4060
:100C0000761E16403143F0BC00F0F3BC0CED00E062
:100C1000064900F0070208684FF6FF03184040EA53
:100C20000220034A10430860704700000CED00E00A
:100C30000000FA052DE9F0470E46050065D0DFF803
:100C40001481D8F80000F7B200F00F00B04207D2CC
:100C500088F80070D8F8000000F00F00B04254D1BE
:100C600028683D4C810712D5400703D5206840F421
:100C7000E05020602878000703D5206840F46040E9
:100C800020602068A96820F0F000084320602878E0
:100C9000C0072DD0304968680839012812D00228D1
:100CA00013D0032811D00968890700292DDA21689B
:100CB00021F0030101432160FFF71CFF814641F24F
:100CC000883A0EE009688903EFE709688901ECE7D3
:100CD000FFF710FFA0EB0901514502D90320BDE841
:100CE000F0872068696800F00C00B0EB810FEFD14D
:100CF000D8F80010404601F00F01B14207D9077043
:100D0000006800F00F00B04201D00120E7E728782A
:100D1000400705D52068E96820F4E05008432060CA
:100D20002878000706D52068296920F4604040EA49
:100D3000C100206000F016F82168084AC1F30311D1
:100D4000515CC840064908600020FFF7FBFE002008
:100D5000C5E70000003C024008380240F0160008D9
:100D600028000020154810B5006810F00C02144847
:100D700013D01449042A0FD0082A0ED10F4C241F77
:100D80002268236802F03F025B0207D52068C0F3A7
:100D90008810A0FB010106E0084610BD2168C1F3E0
:100DA0008811A1FB00010023FFF70AFA2168C1F3B3
:100DB0000141491C4900B0FBF1F010BD0838024068
:100DC0000024F40040787D012DE9F84F050076D02D
:100DD0002878DFF8F8B2BE4CC00749D0DBF8001025
:100DE0005846C1F38101012908D00068C0F3810091
:100DF00002280AD1201D0068400206D52068800321
:100E000036D568680028E2D032E06868B0F5803FE7
:100E100010D0B0F5A02F206810D020F480302060D2
:100E2000206820F4802020606868A0B1FFF762FE8F
:100E300006460CE0206840F48030F4E740F480205F
:100E40002060F7E7FFF756FE801B642873D8206800
:100E50008003F7D50CE0FFF74DFE064605E000BF26
:100E6000FFF748FE801B6428F0D820688003F7D481
:100E70002878DFF8608280074FF000093ED5DBF864
:100E80000010584611F00C0F09D00068C0F3810023
:100E900002280BD18D48001F0068400206D420684C
:100EA000800715D5E868012809D111E0E868B8B1D4
:100EB0000120C8F80000FFF71DFE064605E002E12C
:100EC000FFF718FE801B0228C0D820688007F7D5DE
:100ED0002068296920F0F80040EAC10020600DE098
:100EE000C8F80090FFF706FE064604E0FFF702FE92
:100EF000801B02281FD820688007F7D428780007B5
:100F000022D5724E744869696C3671B10121016055
:100F1000FFF7F0FD074604E0FFF7ECFDC01B0228D9
:100F200009D830688007F7D50EE0C0F80090FFF7C9
:100F3000E1FD074605E083E0FFF7DCFDC01B02286A
:100F40007ED830688007F7D42878400768D5DFF866
:100F50007CA100270AF1380ADAF80000C0000BD49F
:100F6000DAF8001041F08051CAF80010DAF80000F9
:100F7000012700F080500090584E3068C00510D412
:100F8000306840F480703060FFF7B4FD009005E0F9
:100F9000FFF7B0FD0099401A022851D83068C0050B
:100FA000F6D54A4EA868683601280FD00528306863
:100FB00010D020F001003060306820F00400306074
:100FC000A868B8B1FFF796FD00900FE0306840F0D8
:100FD0000100F4E740F004003060F7E7FFF78AFD16
:100FE0000099411A41F28830814264D83068800704
:100FF000F4D50EE0FFF77EFD009007E0FFF77AFDE5
:101000000099411A41F28830814254D830688007F3
:10101000F4D42FB1DAF8001021F08051CAF8001092
:10102000A869C0B3DBF80010C1F3810102294AD0DE
:101030000228484607D0C8F86000FFF75BFD00E0D3
:1010400039E005463AE04746C8F86000FFF752FD30
:10105000064604E0FFF74EFD801B02282BD82068CF
:101060008001F7D4D5E907010843A96A1C4A490859
:1010700002EB01416A6A41EA8211084395F82C109B
:1010800040EA01611148001F016001203866FFF746
:1010900031FD054605E014E0FFF72CFD401B02285A
:1010A00009D820688001F7D50BE000BFFFF722FDCB
:1010B000401B022802D90320BDE8F88F2068800178
:1010C000F4D40020F8E70120F6E7000008380240D9
:1010D0000038024000004742800E47420070004046
:1010E0000000FFFF70B5040005D00025A56294F84C
:1010F000510010B106E0012070BD84F85050204628
:1011000000F030F8022084F851002068016821F0D6
:1011100040010160D4E901010843D4E903121143FD
:10112000084361690843218B01F400710843E169B8
:101130000843216A0843A16A084321680860A0693E
:10114000042101EA1040616A084321684860206870
:10115000C16921F40061C1616565012084F8510015
:10116000002070BD10B586B0044614216846FFF714
:101170005FF813492068884220D112480021026894
:1011800042F480520260006800F4805005900D48DF
:101190001438026842F001020260006800F00100A9
:1011A0000590F02000900220CDE90101032003907A
:1011B0000520049069460448FFF7B2FB06B010BD55
:1011C0000030014044380240000002402DE9F84F51
:1011D000044690F8500000271D461646894601280F
:1011E0000DD04FF0010B84F850B0FFF783FC804620
:1011F00094F85100BA46012804D002278EE002205C
:10120000BDE8F88FB9F1000F7DD0002E7BD0032010
:1012100084F85100C4F854A0C4F83090A686E6863D
:10122000C4F838A0A4F83CA0A4F83EA0C4F844A098
:10123000C4F840A0A068B0F5004F04D12068016850
:1012400041F48041016020680168490603D40168C7
:1012500041F040010160E068B0F5006F606803D0C4
:1012600030B3012E24D040E008B1012E1CD1206BF8
:1012700021680088C86006E020688168890709D570
:10128000216B0988C160206B801C2063E08E401EAA
:10129000E08609E0FFF72EFCA0EB0800A84202D38D
:1012A000681C01D031E07DB3E08E0028E4D11FE05E
:1012B000206B21680078087306E020688168890740
:1012C00009D5216B09780173206B401C2063E08EE7
:1012D000401EE08609E0FFF70DFCA0EB0800A842E5
:1012E00002D3681C01D010E075B1E08E0028E4D173
:1012F00042462946204600F09FF808B1202060654C
:10130000A06820B107E008E0FFE7032706E02068B7
:10131000C16880680090606D00B1012784F851B009
:1013200084F850A038466BE710B5401EB0F1807FBE
:1013300001D3012010BD4FF0E02460610F21601740
:1013400000F057F90020A06107202061002010BDA7
:10135000FEE700000B480A490122C0E90012002103
:101360004FF440238160C0E9031313054361017604
:1013700041768176C27601774177FFF7AAB90000FE
:10138000006400402C000020F0B587B014216846AE
:10139000FEF74EFF15480024016841F0010101608D
:1013A000016801F001010591016841F00801016047
:1013B00000680F4F00F008004FF4004605902246E9
:1013C00031463846FFF790FB0125CDE900546946C8
:1013D00008480294FFF7A4FA0096CDE90154694643
:1013E00038460394FFF79CFA07B0F0BD303802404E
:1013F000000C0240000002400C480B494FF48022D0
:1014000001604FF48271416000218160C16001611F
:10141000C0E905121822C0E90721416281620A2150
:10142000C162FFF75FBE00000030014054000020A1
:10143000FEE770477047000038B504461248134B6A
:101440000068B0FBF3F04FF47A7358430090606883
:10145000B0F5827F0DD10B460092002280212046FC
:1014600000F016F870B1606D40F020006065032058
:1014700038BD009830B1401E009020688068C0439D
:101480000006F6D5002038BD2800002000366E0189
:101490002DE9F0411D4617460E460446DDF818803A
:1014A00008E0681C06D0FFF725FBA0EB0800A84267
:1014B0000BD255B12068806836EA000030D0002099
:1014C000B842EED10020BDE8F0812068416821F0EB
:1014D000E00141606068B0F5827F0BD1A068B0F593
:1014E000004F02D0B0F5806F04D12068016821F070
:1014F00040010160A06AB0F5005F09D12068016871
:1015000021F4005101602068016841F4005101603C
:10151000012084F85100002084F850000320D2E715
:101520000120CDE77047FFF7EBBA000010B592B08D
:1015300030216846FEF77CFE14210CA8FEF778FEE9
:1015400014480024016841F080510160006800F0F7
:10155000805011901048016841F48041016000689A
:10156000069400F480401190022000900120039026
:10157000102004906846FFF727FC0F20CDE90C04EB
:101580008020CDE90E0400210CA81094FFF752FB37
:1015900012B010BD40380240007000401048016891
:1015A00041F4700101600F48016841F001010160E0
:1015B0000C4A00210832116002680B4B1A4002608D
:1015C000031D0A4A1A60026822F48022026005485C
:1015D0000C300160024958068039086070470000ED
:1015E00088ED00E000380240FFFFF6FE10300024D6
:1015F000FEE70907090E002804DB00F1E02080F86F
:101600000014704700F00F0000F1E02080F8141D76
:10161000704702E008C8121F08C1002AFAD17047BB
:101620007047002001E001C1121F002AFBD1704762
:10163000FFF76EFAFFF77AFFFFF7A6FEFFF7DCFE73
:10164000FFF788FE2648002444F6A00144610461A7
:10165000C0E9001484600121C161C46001620146D7
:101660009C38FEF73DFE1E489C38FFF713F91C48D6
:1016700002219C38FEF721FEDFF868801A4DDFF862
:101680006C904FF4FA7B4FF400464FF4FA6A012154
:1016900047464046FFF71CFA012810D15846FFF78D
:1016A0002DF901213846FFF713FA40B90E490C48CD
:1016B00040F2DC530E220C317438FFF787FD2868A6
:1016C0000128E4D131464F464846FFF706FA504616
:1016D000FFF714F931463846FFF7FFF92C60D6E7DB
:1016E000C80000200000024000000020000C024062
:1016F00000000000000000000102030406070809C2
:1017000020170008000000202C000000121600081E
:101710004C1700082C000020C4040000221600080A
:1017200000000000000000000000000048454C4C94
:101730004F20574F524C44210D0A00000100000079
:0C17400010000000000000000024F40075
:040000050800018965
:00000001FF
