:020000040800F2
:10000000800400209D010008930D0008E50C000805
:10001000910D0008A9020008510F0008000000001F
:10002000000000000000000000000000850E000835
:10003000AB02000800000000950D0008870E0008C4
:10004000B7010008B7010008B7010008B7010008B0
:10005000B7010008B7010008B7010008B7010008A0
:10006000B7010008B7010008B7010008B701000890
:10007000B7010008B7010008B7010008B701000880
:10008000B7010008B7010008B7010008B701000870
:10009000B7010008B7010008B7010008B701000860
:1000A000B7010008B7010008B7010008B701000850
:1000B000B7010008B7010008B7010008B701000840
:1000C000B7010008B7010008B7010008B701000830
:1000D000B7010008B7010008B7010008B701000820
:1000E000B7010008B7010008B7010008B701000810
:1000F000B7010008B7010008B7010008B701000800
:10010000B7010008B7010008B7010008B7010008EF
:10011000B7010008B7010008B7010008B7010008DF
:10012000B7010008B7010008B7010008B7010008CF
:10013000B7010008B7010008B7010008B7010008BF
:10014000B7010008B7010008B7010008B7010008AF
:10015000B7010008B7010008B7010008B70100089F
:10016000B7010008B7010008B7010008B70100088F
:10017000B7010008B7010008B7010008000000003F
:10018000B7010008B7010008DFF80CD000F07AF8DA
:1001900000480047910F000880040020064880476F
:1001A00006480047FEE7FEE7FEE7FEE7FEE7FEE75C
:1001B000FEE7FEE7FEE7FEE7FD0E00088901000806
:1001C0002DE9F05F0546002092469B46884606468C
:1001D000814640241BE0284641464746224600F01F
:1001E00041F853465A46C01A914110D31146184659
:1001F000224600F028F82D1A67EB01084F462246E8
:100200000120002100F01FF817EB00094E41201ECD
:10021000A4F10104DFDC484631462A464346BDE8E6
:10022000F09FD2B201E000F8012B491EFBD27047CB
:100230000022F6E710B513460A4604461946FFF7B2
:10024000F0FF204610BD202A04DB203A00FA02F11C
:10025000002070479140C2F1200320FA03F31943B4
:1002600090407047202A04DB203A21FA02F0002156
:10027000704721FA02F3D040C2F1200291400843B6
:1002800019467047064C074D06E0E06840F0010350
:1002900094E8070098471034AC42F6D3FFF778FF94
:1002A0002810000848100008FEE7704770B50446A3
:1002B00000F0F8F80546601C02D0044800780444B9
:1002C00000F0F0F8401BA042FAD370BD14000020EB
:1002D0002DE9F84FDFF87CB100224FF001084FF014
:1002E000030A4FF00F090BF1040E00BF0B6808FA68
:1002F00002F42340A3426ED14D68022D01D0122D8D
:100300000ED1D50800EB850CDCF820505607F70E0F
:1003100009FA07F6B5430E69BE402E43CCF82060BB
:10032000066855000F790AFA05FC07F0030726EA6C
:100330000C06AF40374307604E68012E05D0022EF1
:1003400003D0112E01D0122E0ED18668CF6826EA76
:100350000C06AF40374387604668A6430C79C4F368
:100360000014944034434460C6688C6826EA0C0646
:10037000AC403443C4604C68E40065D5364C256815
:1003800045F480452560246822F0030504F4804488
:100390000094324C2E19D6F8084895072F0F09FA09
:1003A00007F5AC432E4DA84201D1002524E02D4D88
:1003B000A84201D101251FE02B4DA84201D1022501
:1003C0001AE02A4DA84201D1032515E0284DA84284
:1003D00002D1042510E037E0264DA84201D10525C1
:1003E0000AE0254DA84201D1062505E0234DA8428B
:1003F00001D1072500E00825BD402543C6F808586F
:10040000DBF800405D464E689C43F60300D51C4374
:100410002C60DEF8004075464E689C43B60300D55C
:100420001C432C600B4D08352C684E689C43F6022B
:1004300000D51C432C60074D0C352C684E689C433E
:10044000B60200D51C432C60521C102AFFF44EAF9C
:10045000BDE8F88F003C01404438024000300140C4
:10046000000002400004024000080240000C02406C
:10047000001002400014024000180240001C02401C
:100480000069084000D001207047426931EA020249
:1004900000D10904816170470AB181617047090484
:1004A000FBE700000148806870470000140000204E
:1004B000024881680278114481607047140000206E
:1004C0000B4810B5016841F400710160016841F406
:1004D00080610160016841F480710160032000F0D7
:1004E00061F8002000F006F800F024F8002010BDAC
:1004F000003C024070B50D4D04464FF47A712878E7
:10050000B1FBF0F00A490968B1FBF0F000F0D6FB4E
:1005100048B9102C07D200222146501E00F022F8C4
:1005200000206C6070BD012070BD00001400002030
:10053000200000200A4808B5016841F480410160AC
:10054000006800F4804000900548001F016841F0F9
:1005500080510160006800F08050009008BD0000EC
:1005600044380240F0B40E4B1B680C46C3F3022320
:10057000C3F10705042D00D90425191D072901D24F
:10058000002300E0DB1E012606FA05F1491E21408A
:1005900099409E40761E16403143F0BC00F0D9BC15
:1005A0000CED00E0064900F0070208684FF6FF0373
:1005B000184040EA0220034A1043086070470000D8
:1005C0000CED00E00000FA052DE9F0470E460500AD
:1005D00065D0DFF81481D8F80000F7B200F00F0002
:1005E000B04207D288F80070D8F8000000F00F0081
:1005F000B04254D128683D4C810712D5400703D53D
:10060000206840F4E05020602878000703D5206877
:1006100040F4604020602068A96820F0F0000843A2
:1006200020602878C0072DD0304968680839012833
:1006300012D0022813D0032811D009688907002995
:100640002DDA216821F0030101432160FFF72AFF21
:10065000814641F2883A0EE009688903EFE70968AC
:100660008901ECE7FFF71EFFA0EB0901514502D914
:100670000320BDE8F0872068696800F00C00B0EB4B
:10068000810FEFD1D8F80010404601F00F01B142C0
:1006900007D90770006800F00F00B04201D00120B8
:1006A000E7E72878400705D52068E96820F4E0509E
:1006B000084320602878000706D52068296920F4BF
:1006C000604040EAC100206000F016F82168084A46
:1006D000C1F30311515CC840064908600020FFF7D0
:1006E00009FF0020C5E70000003C02400838024036
:1006F0001810000820000020154810B5006810F000
:100700000C02144813D01449042A0FD0082A0ED121
:100710000F4C241F2268236802F03F025B0207D5BA
:100720002068C0F38810A0FB010106E0084610BD58
:100730002168C1F38811A1FB00010023FFF740FDF0
:100740002168C1F30141491C4900B0FBF1F010BD23
:10075000083802400024F40040787D012DE9F84F6C
:10076000050076D02878DFF8F8B2BE4CC00749D033
:10077000DBF800105846C1F38101012908D0006858
:10078000C0F3810002280AD1201D0068400206D56E
:100790002068800336D568680028E2D032E06868B7
:1007A000B0F5803F10D0B0F5A02F206810D020F415
:1007B00080302060206820F4802020606868A0B12C
:1007C000FFF770FE06460CE0206840F48030F4E746
:1007D00040F480202060F7E7FFF764FE801B642868
:1007E00073D820688003F7D50CE0FFF75BFE064660
:1007F00005E000BFFFF756FE801B6428F0D8206894
:100800008003F7D42878DFF8608280074FF0000972
:100810003ED5DBF80010584611F00C0F09D00068E7
:10082000C0F3810002280BD18D48001F00684002F0
:1008300006D42068800715D5E868012809D111E0A1
:10084000E868B8B10120C8F80000FFF72BFE0646A3
:1008500005E002E1FFF726FE801B0228C0D82068D1
:100860008007F7D52068296920F0F80040EAC10028
:1008700020600DE0C8F80090FFF714FE064604E083
:10088000FFF710FE801B02281FD820688007F7D4CE
:100890002878000722D5724E744869696C3671B1A8
:1008A00001210160FFF7FEFD074604E0FFF7FAFDB6
:1008B000C01B022809D830688007F7D50EE0C0F8C1
:1008C0000090FFF7EFFD074605E083E0FFF7EAFD44
:1008D000C01B02287ED830688007F7D428784007EC
:1008E00068D5DFF87CA100270AF1380ADAF80000A1
:1008F000C0000BD4DAF8001041F08051CAF80010A3
:10090000DAF80000012700F080500090584E30685F
:10091000C00510D4306840F480703060FFF7C2FD2D
:10092000009005E0FFF7BEFD0099401A022851D85B
:100930003068C005F6D54A4EA868683601280FD041
:100940000528306810D020F001003060306820F0B9
:1009500004003060A868B8B1FFF7A4FD00900FE074
:10096000306840F00100F4E740F004003060F7E741
:10097000FFF798FD0099411A41F28830814264D80E
:1009800030688007F4D50EE0FFF78CFD009007E09B
:10099000FFF788FD0099411A41F28830814254D80E
:1009A00030688007F4D42FB1DAF8001021F08051BC
:1009B000CAF80010A869C0B3DBF80010C1F38101C8
:1009C00002294AD00228484607D0C8F86000FFF73D
:1009D00069FD00E039E005463AE04746C8F86000A6
:1009E000FFF760FD064604E0FFF75CFD801B022870
:1009F0002BD820688001F7D4D5E907010843A96AFC
:100A00001C4A490802EB01416A6A41EA8211084323
:100A100095F82C1040EA01611148001F0160012087
:100A20003866FFF73FFD054605E014E0FFF73AFDA5
:100A3000401B022809D820688001F7D50BE000BFD1
:100A4000FFF730FD401B022802D90320BDE8F88FD4
:100A500020688001F4D40020F8E70120F6E70000C8
:100A6000083802400038024000004742800E4742EA
:100A7000007000400000FFFF70B5040005D00025A5
:100A8000A56294F8510010B106E0012070BD84F811
:100A90005050204600F030F8022084F851002068C1
:100AA000016821F040010160D4E901010843D4E963
:100AB00003121143084361690843218B01F400715B
:100AC0000843E1690843216A0843A16A0843216891
:100AD0000860A069042101EA1040616A08432168A6
:100AE00048602068C16921F40061C1616565012029
:100AF00084F85100002070BD10B586B00446142162
:100B00006846FFF795FB13492068884220D11248B8
:100B10000021026842F480520260006800F48050B4
:100B200005900D481438026842F001020260006826
:100B300000F001000590F02000900220CDE90101B5
:100B4000032003900520049069460448FFF7C0FB8A
:100B500006B010BD003001404438024000000240A1
:100B60002DE9F84F044690F8500000271D46164620
:100B7000894601280DD04FF0010B84F850B0FFF7E3
:100B800091FC804694F85100BA46012804D002270F
:100B90008EE00220BDE8F88FB9F1000F7DD0002E65
:100BA0007BD0032084F85100C4F854A0C4F83090DE
:100BB000A686E686C4F838A0A4F83CA0A4F83EA017
:100BC000C4F844A0C4F840A0A068B0F5004F04D118
:100BD0002068016841F4804101602068016849068D
:100BE00003D4016841F040010160E068B0F5006F96
:100BF000606803D030B3012E24D040E008B1012E4C
:100C00001CD1206B21680088C86006E020688168DC
:100C1000890709D5216B0988C160206B801C20637E
:100C2000E08E401EE08609E0FFF73CFCA0EB0800E8
:100C3000A84202D3681C01D031E07DB3E08E0028C9
:100C4000E4D11FE0206B21680078087306E020687B
:100C50008168890709D5216B09780173206B401CD5
:100C60002063E08E401EE08609E0FFF71BFCA0EB4E
:100C70000800A84202D3681C01D010E075B1E08ED4
:100C80000028E4D142462946204600F085F808B104
:100C900020206065A06820B107E008E0FFE7032797
:100CA00006E02068C16880680090606D00B101278F
:100CB00084F851B084F850A038466BE710B5401E58
:100CC000B0F1807F01D3012010BD4FF0E0246061BE
:100CD0000F21601700F03DF90020A061072020617E
:100CE000002010BDFEE70000F0B587B01421684673
:100CF000FFF79EFA15480024016841F001010160E8
:100D0000016801F001010591016841F008010160ED
:100D100000680F4F00F008004FF40046059022468F
:100D200031463846FFF7B8FB0125CDE90054694646
:100D300008480294FFF7CCFA0096CDE901546946C1
:100D400038460394FFF7C4FA07B0F0BD30380240CC
:100D5000000C0240000002400C480B494FF4802276
:100D600001604FF48271416000218160C1600161C6
:100D7000C0E905121822C0E90721416281620A21F7
:100D8000C162FFF779BE000000300140240000205E
:100D9000FEE770477047000038B504461248134B11
:100DA0000068B0FBF3F04FF47A735843009060682A
:100DB000B0F5827F0DD10B460092002280212046A3
:100DC00000F016F870B1606D40F0200060650320FF
:100DD00038BD009830B1401E009020688068C04344
:100DE0000006F6D5002038BD2000002000366E0138
:100DF0002DE9F0411D4617460E460446DDF81880E1
:100E000008E0681C06D0FFF74DFBA0EB0800A842E5
:100E10000BD255B12068806836EA000030D000203F
:100E2000B842EED10020BDE8F0812068416821F091
:100E3000E00141606068B0F5827F0BD1A068B0F539
:100E4000004F02D0B0F5806F04D12068016821F016
:100E500040010160A06AB0F5005F09D12068016817
:100E600021F4005101602068016841F400510160E3
:100E7000012084F85100002084F850000320D2E7BC
:100E80000120CDE77047FFF713BB000010B592B00B
:100E900030216846FFF7CCF914210CA8FFF7C8F9F8
:100EA00014480024016841F080510160006800F09E
:100EB000805011901048016841F480410160006841
:100EC000069400F4804011900220009001200390CD
:100ED000102004906846FFF741FC0F20CDE90C0478
:100EE0008020CDE90E0400210CA81094FFF76CFBC4
:100EF00012B010BD40380240007000401048016838
:100F000041F4700101600F48016841F00101016086
:100F10000C4A00210832116002680B4B1A40026033
:100F2000031D0A4A1A60026822F480220260054802
:100F30000C30016002495806803908607047000093
:100F400088ED00E000380240FFFFF6FE103000247C
:100F5000FEE70907090E002804DB00F1E02080F815
:100F60000014704700F00F0000F1E02080F8141D1D
:100F7000704702E008C8121F08C1002AFAD1704762
:100F80007047002001E001C1121F002AFBD1704709
:100F9000FFF796FAFFF77AFFFFF7A6FEFFF7DCFEF2
:100FA000194F1A4C1A4E4FF4FA7940F2DC5A4FF0AE
:100FB00000084FF400454FF4FA6B01213846FFF763
:100FC0005FFA01280ED14846FFF770F90121384633
:100FD000FFF756FA30B90D4953460E22091D0D4848
:100FE000FFF7BEFD20680128E7D129463046FFF70C
:100FF0004CFA5846FFF75AF929463046FFF745FAAA
:10100000C4F80080D9E70000000002400000002082
:10101000000C02402400002000000000000000003E
:101020000102030406070809481000080000002018
:1010300024000000720F00086C100008240000203B
:101040005C040000820F00080000000048454C4C82
:101050004F20574F524C44210D0A00000100000060
:0C10600010000000000000000024F4005C
:040000050800018965
:00000001FF
