:020000040800F2
:10000000E804002039010008F3190008B5110008C0
:10001000F1190008A5010008FD1B00080000000000
:10002000000000000000000000000000791A000835
:10003000A701000800000000F51900087B1A00085D
:100040005301000853010008530100085301000840
:100050005301000853010008530100085301000830
:100060005301000853010008530100085301000820
:100070005301000853010008530100085301000810
:100080005301000853010008530100085301000800
:1000900053010008530100085301000853010008F0
:1000A00053010008530100085301000853010008E0
:1000B000530100085301000853010008B91100085A
:1000C00053010008530100085301000853010008C0
:1000D00053010008530100085301000853010008B0
:1000E00053010008530100085301000853010008A0
:1000F00053010008000000005301000853010008EC
:100100000000000000000000530100085301000837
:1001100053010008530100085301000800000000CB
:1001200053010008DFF80CD000F02AF8004800471F
:100130003D1C0008E80400200648804706480047A8
:10014000FEE7FEE7FEE7FEE7FEE7FEE7FEE7FEE787
:10015000FEE7FEE7D51A000825010008D2B201E04B
:1001600000F8012B491EFBD270470022F6E710B5BC
:1001700013460A4604461946FFF7F0FF204610BD15
:10018000064C074D06E0E06840F0010394E80700E4
:1001900098471034AC42F6D3FFF7C8FFE41D0008BF
:1001A000041E0008FEE7704730B502234371036860
:1001B0009C6844F001049C60002304E0056851F849
:1001C00023402C605B1C9342F8D30168096801222C
:1001D0004271084630BD10B5040002D0607910B1FC
:1001E00006E0012010BD00202071204600F006F836
:1001F0000220607101206071002010BD08B5006808
:100200000649884208D10648016841F480510160DE
:10021000006800F48050009008BD000000300240EB
:100220001C38024010B590F821100024022903D098
:100230000421816301241AE001680A6822F00E0299
:100240000A6001680A6822F001020A6090F8401012
:10025000C36B01F01C02012101FA02F25A6080F81E
:100260002110002180F82010416B01B18847204601
:1002700010BD90F82100704770B5044600F0E0F81A
:100280000546601C02D004484068044400F0D8F8D9
:10029000401BA042FAD370BD0C0000202DE9F84F9E
:1002A000DFF864B100234FF0010C4FF0030A4FF068
:1002B0000F090BF1040EA0E00CFA03F6324072D0E5
:1002C0004C68022C01D0122C0ED1DC0800EB840803
:1002D000D8F820405D07EF0E09FA07F5AC430D6929
:1002E000BD402543C8F8205007685D0091F80480A0
:1002F0000AFA05F408F00308A74308FA05F848EAE3
:100300000708C0F800804F68012F05D0022F03D0E6
:10031000112F01D0122F11D18768D1F80C80A7437B
:1003200008FA05F848EA0708C0F808804768B743A4
:100330000E79C6F300169E403E434660C668A6434B
:100340008C68AC403443C4604C68E40054D52F4CF6
:10035000256845F001052560246823F0030504F0B5
:10036000010400942A4C2544AF689C07240F09FA25
:1003700004F6B743274EB04201D1002615E0264EC1
:10038000B04201D1012610E0244EB04201D1022634
:100390000BE0234EB04201D1032606E0214EB042CD
:1003A00002D1042601E027E00526A6403E43AE60C8
:1003B000DBF800405D464E689443F60300D51443D5
:1003C0002C60DEF8004075464E689443B60300D5B5
:1003D00014432C600C4D08352C684E689443F6028B
:1003E00000D514432C60084D0C352C684E6894439E
:1003F000B60200D514432C605B1C0A6832FA03F481
:100400007FF45AAFBDE8F88F000401402038024065
:1004100000000140000002400004024000080240C9
:10042000000C02400010024042690A4200D0090458
:10043000816170470AB1816170470904FBE70000E0
:1004400001488068704700000C000020704770472A
:100450002DE9F041026800245168C56A90F83E30E9
:1004600090F83D60102B1CD0402B1AD0036C002B51
:100470007ED053694FF02805DB439F0779D4CF43E3
:10048000BF0576D4016C01B1946990F83D3000212C
:100490009D430B467FD0C91E516180F83C30BDE8BA
:1004A000F081946953694FF42A07DB435FEAC37C08
:1004B0004FF02A4604D0BD42F1D0B542EFD010E053
:1004C000CD43AD050DD4C16AB94201D1012103E08C
:1004D000C16AB14201D10821C162BDE8F04101F019
:1004E00053B91D0716D4CD43AD0513D4416CC9B221
:1004F0001161416B11B9826B002AD0D0896A19B998
:10050000816B896A0029CAD00068416841F40061A2
:100510004160C4E79D0706D4CD43AD0503D4BDE8D3
:10052000F04101F0A5B8E443526864074FEA025273
:1005300015D4002AB3DB1A0608D4CA43520505D4E1
:100540005A0705D5BDE8F04101F010B85A07A6D406
:10055000C9438905A3D4BDE8F04100F0C5BF002A16
:100560009DDB5A060CD4CA43520509D45A0702E04F
:100570000FE023E00FE005D5BDE8F04100F06BBFD0
:100580005A078CD4C943890589D4BDE8F04100F0ED
:10059000F9BE94696DE7556825F480655560E243BE
:1005A000540700D50121120601D5828900E0028B93
:1005B00080F83C3092B2FFF74AFF70E7DC0606D4C1
:1005C000CC43A40503D4BDE8F04101F025B9212EA8
:1005D00027D0292E25D05C0655D4CC43640552D4AF
:1005E0005B0752D590F83D10438D002B91D01269D6
:1005F000436A1A70426A521C4262428D521E428500
:10060000428D002A85D12A29D7D101684A6822F46F
:1006100080624A602221016380F83D5000F042F977
:100620003DE71C0623D4CC43640520D45B0720D5CA
:1006300090F83D10438D002BBFD0436A1B781361A7
:10064000426A521C4262428D521E4285428D002AED
:10065000B3D12929B1D101684A6822F480624A6085
:100660002121016380F83D5000F02AF917E75B076C
:10067000A3D4C9438905A0D4418D00299DD0416AE6
:10068000097811610AE05B0797D4C943890594D4BE
:10069000418D002991D01169426A1170416A491C4B
:1006A0004162418D491E4185F9E6704770B50400ED
:1006B0001BD094F83D00002520B984F83C5020461A
:1006C00000F0B4F8242084F83D002068016821F08F
:1006D0000101016000F09EFA4D4A6168914201D823
:1006E0004C4900E04C49884201D2012070BD4B4981
:1006F0002368B0FBF1F15E6826F03F060E435E60B2
:100700006368934206D94FF4967359434FF47A7352
:10071000B1FBF3F12368491C1E6A26F03F06314302
:1007200019626168914210D84900401EB0FBF1F295
:10073000521CC2F30B02042A01D2042022E0B0FBB7
:10074000F1F0401CC0F30B001CE0A368F3B301EB15
:10075000C10202EB0116421EB2FBF6F2521C42F439
:100760008042120549D093B301EBC10202EB0111A3
:10077000401EB0FBF1F0401CC0F30B0040F4804081
:1007800040F400402168CA694CF6FF739A43104355
:10079000C861D4E90701084321680A6822F0C00251
:1007A00010430860D4E9030101432068826848F2DD
:1007B000FF339A4311438160D4E90501084321685E
:1007C000CA6822F0FF021043C86001E00EE016E0A4
:1007D0002068016841F0010101602564202084F84F
:1007E0003D00256384F83E50002070BD01EB4106BA
:1007F000421EB2FBF6F2521CB3E70120C2E701EB46
:100800004101401EB0FBF1F0401CC0F30B00B7E704
:10081000A086010080841E0000093D0040420F00B8
:1008200070477047704770477047000010B586B03A
:10083000044614216846FFF798FC1749206888424F
:1008400028D11648016841F002010160006869463C
:1008500000F002000590C0200090122001900120BD
:10086000029003200390042004900D48FFF716FD2A
:100870000A480830016841F4001101600068002254
:1008800000F40010059011461F2000F0BFF81F2053
:1008900000F0AEF806B010BD005400401C38024015
:1008A000000402400449884205D1488D002802D145
:1008B00002490120086070474C0000200000002021
:1008C0007047000010B590F83D30202B34D161B155
:1008D0005AB190F83C30012B2ED0012380F83C30E7
:1008E00003681C68E40702D005E0012010BD1C6805
:1008F00044F001041C6003681C6824F400641C605C
:10090000222380F83D30202380F83E30002303640A
:1009100041624285418D01850849C16201680A68CA
:1009200042F480620A6080F83C300068416841F41B
:10093000E0614160002010BD022010BD0000FFFFFB
:100940000248816842681144816070470C000020B1
:1009500010B50024032000F079F8002000F008F81A
:1009600008B1012401E000F025F8204610BD000088
:1009700070B50E4E05460024706898B14FF47A7138
:10098000B1FBF0F00A490968B1FBF0F000F09EFB02
:1009900040B9102D06D200222946501E00F036F82C
:1009A000356000E00124204670BD00000C000020EE
:1009B000180000200D4808B5016841F000410160B1
:1009C000016801F000410091011F0A6842F0010234
:1009D0000A60096801F001010091016841F080514D
:1009E0000160006800F08050009008BD243802408B
:1009F000002809DB00F01F0201219140400980001E
:100A000000F1E020C0F8001170470000F0B40E4B78
:100A10001B680C46C3F30223C3F10705042D00D95C
:100A20000425191D072901D2002300E0DB1E012641
:100A300006FA05F1491E214099409E40761E164057
:100A40003143F0BC01F0DBB80CED00E0064900F0EA
:100A5000070208684FF6FF03184040EA0220034AE5
:100A600010430860704700000CED00E00000FA053C
:100A70002DE9F0470E46050079D0DFF88481D8F8DB
:100A8000000000F00100B04214D2012E05D1D8F8C8
:100A9000001041F00401C8F80010D8F8001021F04F
:100AA00001013143C8F80010D8F8000000F001003F
:100AB000B0425CD12878534C800705D52068A968DE
:100AC00020F0F000084320602878C0075CD04D4932
:100AD0006868083902281AD003281BD00968012841
:100AE0001BD08905002966DA216821F00301014342
:100AF0002160FFF7A5FC6968074641F288300229AA
:100B000014D0032920D0012981462AD038E0096871
:100B10008903E7E709688901E4E78907E2E700BF9D
:100B2000FFF78EFCC11B494501D926E081462068AC
:100B3000C0F381000228F3D126E000BFFFF780FC5C
:100B4000C11B494501D918E081462068C0F38100E6
:100B50000328F3D118E000BFFFF772FCC11B494521
:100B60000BD82068C0F381000128F5D10CE022E009
:100B7000FFF766FCC11B494502D90320BDE8F08799
:100B8000206810F00C0FF3D1D8F80010404601F0A7
:100B90000101B14211D9012E03D1016841F00401D4
:100BA0000160016821F0010131430160006800F03B
:100BB0000100B04201D00120E0E72878400705D5C8
:100BC0002068E96820F4E060084320602878000786
:100BD00006D52068296920F4605040EAC1002060F1
:100BE00000F038F82168084AC1F30311515CC8408D
:100BF0000649086006480068BDE8F047FFF7B8BE40
:100C0000003C024008380240C91D000818000020BE
:100C10000C0000200448054900680968044AC1F333
:100C20000221515CC840704718000020083802407B
:100C3000D91D00080448054900680968044AC1F341
:100C4000C221515CC840704718000020083802409B
:100C5000D91D0008104A1168104801F00C03042B3C
:100C60000BD0082B09D00C2B08D0101F0068C0F344
:100C700042314FF40040491C884070470848C1F396
:100C800083431268C05CC1F38151D203034A491CFB
:100C90005043B0FBF1F07047083802400024F400E4
:100CA000C01D00082DE9F84F04007DD0FC48016804
:100CB000006801F00C0700F480362078F94DC00779
:100CC00041D0082F12D00C2F02D1B6F5803F0DD0A5
:100CD0006068012811D008B1052818D0286820F4D0
:100CE00080302860286820F4802009E0286880038C
:100CF00029D560680028D8D025E0286840F48030E5
:100D00002860606890B1FFF79BFB80460AE0286886
:100D100040F480202860F0E7FFF792FBA0EB08008A
:100D200064287BD828688003F6D50CE0FFF788FBA1
:100D3000804605E0FFF784FBA0EB08006428F0D8AC
:100D400028688003F6D42078DFF85CB3DFF85C8392
:100D500080074FF001094FF0000A35D5042F0AD063
:100D60000C2F00D13EB1E068F8B1C8F80090FFF751
:100D700067FB06460BE0286880070BD5E068012872
:100D800012D107E0FFF75CFB801B0228C9D8286856
:100D90008007F7D5DBF80010226921F4F85141EA09
:100DA0000221CBF800100FE077E1C8F800A0FFF7B0
:100DB00047FB064605E000BFFFF742FB801B022809
:100DC000AFD828688007F7D42078C00674D53FB123
:100DD000A069E0B3C8F82090FFF732FB06464AE06E
:100DE0002868800502D5A069002884D0206ADBF835
:100DF00000105E4601F46041884210D900F0FCFD0D
:100E00000028BDD13068216A20F46040084330607A
:100E1000217F306861F31F6030600FE096E0316839
:100E200021F4604101433160217F306861F31F602C
:100E30003060206A00F0E0FD0028A1D1216A4FF463
:100E4000004009EB513188409549096800E025E0F0
:100E5000974AC1F30311515CC8409649086096480F
:100E60000068FFF785FD00286FD125E0FFF7E8FA5D
:100E7000801B02286AD828688005F7D5DBF80010A7
:100E8000226A21F460411143CBF80010227FDBF885
:100E9000001062F31F61CBF800100DE0C8F820A02D
:100EA000FFF7CEFA064604E0FFF7CAFA801B0228D5
:100EB0004CD828688005F7D42078804E000722D5CA
:100EC0007F48616981B1C0F80090FFF7B9FA8346A5
:100ED00006E000BFFFF7B4FAA0EB0B00022835D8FC
:100EE00030688007F6D50EE0C0F800A0FFF7A8FA3A
:100EF000834605E0FFF7A4FAA0EB0B00022825D8F3
:100F000030688007F6D4207840076DD56B484FF0E5
:100F1000000B10380068C0000BD468481038016816
:100F200041F08051016000684FF0010B00F08050EB
:100F3000009064480168C90514D4016841F48071C7
:100F40000160FFF77DFA009008E08DE079E000BFD6
:100F5000FFF776FA0099401A642872D85948006859
:100F6000C005F5D5A06801280AD008B1052811D020
:100F7000306820F480703060306820F4806002E0D7
:100F8000306840F480703060A068A8B1FFF758FA6C
:100F900000900DE0306840F480603060F0E700BF02
:100FA000FFF74EFA0099411A41F2883081425AD82F
:100FB00030688005F4D50EE0FFF742FA009007E0B4
:100FC000FFF73EFA0099411A41F2883081424AD82F
:100FD00030688005F4D4BBF1000F05D037481038D5
:100FE000016821F080510160606A58B30C2F41D034
:100FF0000228504605D0C8F86000FFF721FA0446E1
:1010000034E04746C8F86000FFF71AFA064604E0E5
:10101000FFF716FA801B022825D828688001F7D42C
:10102000D4E90A1001431E48226B036823F47D03B0
:101030001A4311430160C7F86090FFF701FA0446B4
:1010400007E010E040E000BFFFF7FAF9001B0228BC
:1010500009D828688001F7D536E000BFFFF7F0F91E
:10106000001B022802D90320BDE8F88F2868800100
:10107000F4D429E00128F7D009480068A26A00F4F6
:101080008031914209D1E26A00F47011914204D199
:10109000216B00F44000884216D00120E4E70000F4
:1010A000083802400038024004380240000047423D
:1010B000C91D0008180000200C0000203438024030
:1010C00080064742007000400020CDE710B5401E6A
:1010D000B0F1807F01D3012010BD4FF0E0246061AA
:1010E0000F21601700F08BFD0020A0610720206118
:1010F000002010BD70B5040004D094F83D00002518
:1011000010B106E0012070BD84F83C50204600F08C
:101110001BF8022084F83D00204600F003FD206803
:10112000016921F4804101612068416921F02A01AF
:1011300041612068C16841F40051C160256401200B
:1011400084F83D00002070BD10B586B0044614211F
:101150006846FFF70AF814492068884221D11348ED
:10116000016841F480410160006800F4804005900E
:101170000E48001F016841F00101016000686946E6
:1011800000F0010005904FF4E06000900220019013
:101190000020029003200390072004900448FFF7EA
:1011A0007DF806B010BD0000003801402038024034
:1011B00000000240FEE700000148FFF749B90000C7
:1011C0004C00002010B5406A90F83D30426B002181
:1011D0009162826B91620268146824F480641460E6
:1011E0004185426B5163826B51630268146824F03D
:1011F0000104146090F83D202024602A0BD028229E
:1012000032EA03030FD080F83D4080F83E1000BF63
:10121000FFF74BFA10BD80F83D4080F83E100164A6
:10122000FFF714F910BD03681C6844F001041C604A
:1012300003681C6844F480641C60016380F83D20EE
:10124000E6E7000070B5044690F83D0094F83E10C3
:10125000102906D1222804D121680A6822F40062EC
:101260000A60282131EA00024FF000054FF0200605
:1012700026D021684968090503D4602801D084F884
:101280003D60256384F83E5020684168090537D5E4
:10129000416821F400614160606B90F8212037497A
:1012A000012A11D04163606BFEF7BCFF38B32068A0
:1012B000016821F00101016084F83D60606B1CE071
:1012C000256384F83D10DFE7A06B4163A06BFEF758
:1012D000A9FFA0B120684169C943490605D4006946
:1012E000616A0870606A401C60622068016821F0D1
:1012F0000101016084F83D60A06B416B884710E0FC
:1013000094F83D10602923D04169C943490605D4AA
:101310000069616A0870606A401C60622046FFF7DD
:10132000C4F994F83D00216C490710D528280ED146
:101330002068416821F4E06141601148E062256362
:1013400084F83D6084F83E502046FFF769FA70BD8E
:1013500084F83D6025644169C943490605D40069A4
:10136000616A0870606A401C60622068016821F050
:10137000010101602046FFF769F8D2E7C5110008B6
:101380000000FFFF10B5C26A438D0168042B06D030
:10139000438D032B08D0438D022B1DD012E04A68E9
:1013A00022F480624A600CE04B6823F480634B6057
:1013B000042A06D0022A04D001680A6822F4806256
:1013C0000A6001680969426A1170416A491C4162F8
:1013D000418D491E418510BD012A30D0102A2ED0E2
:1013E000042A30D0022A2ED00A6842F400720A6021
:1013F00001680969426A1170416A491C4162428D63
:10140000521E4285026812690A70416A491C416293
:10141000418D491E418501684A6822F440724A6044
:10142000202180F83D1090F83E200021402A80F8CD
:101430003E100CD012210163FFF7F3F910BD0A68CA
:1014400022F48062D3E70A6842F48062CFE7016346
:10145000FFF7E9F910BD10B590F83D10222914D11D
:10146000418D032912D901680969426A1170416AE4
:10147000491C4162418D491E4185418D032904D19A
:101480000068416821F48061416010BDC26A022A8F
:10149000FBD0012901D00029F7D101680A6822F4A4
:1014A00080620A6001684A6822F4E0624A6001686A
:1014B0000969426A1170416A491C4162418D491EA5
:1014C0004185202180F83D1090F83E200021402ADF
:1014D00080F83E1004D012210163FFF7A2F910BD7D
:1014E0000163FFF7A0F910BD10B5C26A90F83D1076
:1014F00021290BD1418D51B1416A026809781161EE
:10150000416A491C4162418D491E418510BD20231D
:101510000021082A13D0202A11D012F5803F0ED0C6
:101520000268546824F4E06454601122026380F875
:101530003E1080F83D3000BFFFF774F910BD02681F
:10154000546824F4E06454600268146844F400743D
:101550001460016380F83D3090F83E2080F83E1022
:10156000402AE9D1FFF760F910BD000010B590F8EE
:101570003D1090F83E30C26A048D64B1212903D039
:10158000402B21D122291FD1418DA1B390F83E10CB
:10159000402937D046E02129F2D120230021082A12
:1015A00013D0202A11D012F5803F0ED00268546863
:1015B00024F4E06454601122026380F83E1080F845
:1015C0003D3000BFFFF72EF910BD0268546824F4C7
:1015D000E06454600268146844F4007414600163A9
:1015E00080F83D3090F83E2080F83E10402AE9D146
:1015F000FFF71AF910BDFFE70068416821F4806128
:101600004160F7E7016DC1B1016D012922D0016D83
:101610000229EFD190F83D10222923D090F83D10F7
:101620002129E7D1416A026809781161416A491CA0
:101630004162418D491E4185DCE7C16C0129816C05
:1016400002D0C1F3072107E00268C9B21161016D40
:10165000891C05E0816CC9B202681161016D491CE9
:101660000165C7E70068016841F480710160C1E766
:1016700078B590F83E50C26A036B90F83D60002444
:101680000168222E7AD1066D0EB9402D76D0056DF7
:101690001DB90569B5F5404F09D0458D05B3468D97
:1016A000384D012E0ED0438D022B3AD05DE04A69B1
:1016B0008A6900920A6842F480720A60016D491CCE
:1016C000016578BDAA4213D10A6822F480620A60DB
:1016D00001684A68120503D50A6822F4806216E0A0
:1016E0004A698A6900920A6842F400720A6039E025
:1016F000082A10D0202A0ED0122B0AD0042A03D098
:10170000022A01D0102AE7D10A6842F480620A60F6
:1017100024E0012AE0D00A6822F480620A600168AD
:10172000DEE7042A21D0022A1FD0102A1DD00B6820
:1017300023F480630B6001680B6843F400630B6063
:1017400001684B681B0509D5AA4212D0012A10D0A6
:10175000082A0ED0102A0CD0202A0AD001684A6923
:1017600089690091046578BD08E00B6843F48063E3
:10177000E5E74A6842F480524A60EFE748698869C1
:101780000090F0E70000FFFF90F83E10402910D0D5
:101790000169B1F5804F19D0016DB1B3016D012917
:1017A00010D1416C5FF0F10201F4407142EAD111B5
:1017B00006E0016D0029416C05D0C9B241F001017C
:1017C00000680161704701F0FE01F9E790F83D10F3
:1017D0002129416C07D0C9B241F0010102681161B1
:1017E000416B31B902E001F0FE01F7E7826B002A9C
:1017F000E8D0896A19B9816B896A0029E2D000684A
:10180000416841F4006141607047FFE7416CF0229C
:1018100001F44071CAE70000F8B590F83D60044655
:101820000068416821F4E061416020680025416959
:101830000091016841F0010101602068016821F414
:101840008061016020684168090520D5474F222E3C
:1018500048D02A2E46D0616B096849686185618D40
:1018600019B1216C41F004012164416821F4006147
:101870004160606BFEF7FDFC012808D0606B476398
:10188000606BFEF7CFFC10B1606B416B8847608DD9
:1018900008B320684169C943490708D40069616AEF
:1018A0000870606A401C6062608D401E6085206820
:1018B0004169C943490608D40069616A0870606AD1
:1018C000401C6062608D401E6085608D18B1206C88
:1018D00040F004002064206C00B32046BDE8F840CE
:1018E000FFF7B0BCA16B096849686185618D19B1CA
:1018F000216C41F004012164416821F400614160E0
:10190000A06BFEF7B6FC0128C1D0A06B4763A06BAB
:10191000FEF788FC0028BAD0A06BB6E72A2E06D1C5
:101920002563282084F83D002046FEF7BBFF94F88D
:101930003D10202028290DD0216B222901D0222EF4
:1019400007D1256384F83D0084F83E502046FEF719
:10195000A9FFF8BD0649E162256384F83D0084F8DB
:101960003E502046FEF75CFFF8BD0000C5110008A0
:101970000000FFFF70B586B014216846FEF7F5FB46
:101980001948016841F020010160016801F020015F
:101990000591016841F001010160016801F0010158
:1019A0000591016841F00201016000680F4E00F0EE
:1019B00002000590002202213046FEF73BFD002484
:1019C0000125CDE90054694630460294FEF766FCD5
:1019D0000221CDE90015CDE9024169463046FEF706
:1019E0005DFC06B070BD00001C38024000000240E3
:1019F000FEE770477047000038B51C4900230968AE
:101A00001B4A11F0F00F23D118491C310C68E50076
:101A1000184C03D5216801F4C0540EE00D6845F060
:101A200080550D600D6805F08055009524680D689F
:101A300004F4C05425F080550D60B4F5C05F07D1A3
:101A4000B0F5404F04D11068012340F0040010604D
:101A5000106820F0010018431060106800F00100C9
:101A6000984201D0012038BD002038BD083802401E
:101A7000003C0240007000407047FEF761BF00006C
:101A800010B592B034216846FEF76FFB14210DA803
:101A9000FEF76BFB0E48016821F4C05141F4006170
:101AA0000160012000900024019009946846FFF72E
:101AB000F9F80F200D900220CDE90E044002CDE987
:101AC000100400210DA8FEF7D3FF12B010BD0000D6
:101AD000007000400F48016841F4807101600D49B9
:101AE00008310A680C4B1A400A6002680B4B1A4016
:101AF0000260026822F480220260086820F47D00FF
:101B000008600020091D086005494FF0006008606A
:101B100070470000003802400CC0FF88FEFFFEEE58
:101B200008ED00E02DE9F04104460068C16821F0AD
:101B30000C01C16021680869E56820F47C52D4E991
:101B400006031843236A2B431843104340F40060F4
:101B500008612168C86849F20C6290432369A26851
:101B60001A43636903431A4342F40040C860206883
:101B7000416921F4407141611F4920686425322682
:101B8000884202D1FFF756F801E0FFF743F800EB77
:101B9000C00101EB001160686FF0180C4000B1FB50
:101BA000F0F3B3FBF5F3B1FBF0F7B1FBF0F203FB9D
:101BB0000CF307EB830306EBC303B2FBF5F2B3FBB5
:101BC000F5F3120103F0F80302EB4302B1FBF0F36B
:101BD000B1FBF0F0B0FBF5F000FB0CF003EB800084
:101BE00006EBC000B0FBF5F0216800F007001044E0
:101BF0008860BDE8F081000000380140FEE7090779
:101C0000090E002804DB00F1E02080F80014704782
:101C100000F00F0000F1E02080F8141D704702E092
:101C200008C8121F08C1002AFAD170477047002067
:101C300001E001C1121F002AFBD170478CB01821AE
:101C40006846FEF792FA142106A8FEF78EFAFEF710
:101C50007FFEFFF715FFFFF78DFE524950480860E1
:101C60000846FEF7B8FA51484F49002501604FF485
:101C7000E131C0E901150C21C560C0E9045185615D
:101C8000C5610562FFF736FA484849495438016092
:101C90004849C0E901150421C1600903C0E90415E0
:101CA0008561C5610562FEF701FDDFF80CA1012227
:101CB00002215046FEF7BEFBDFF8F080394EA8F156
:101CC0006C08A8F11809361F384918226C3901F13F
:101CD0001800FEF7F7FD3068012827D100210846DB
:101CE0006B46444622185778528852BA67F31F420F
:101CF000275C001D42EA076243F82120491C06299F
:101D0000F0DB062219462748FEF74EFA90B12B4F1A
:101D100000244FF4FA7B80213846FEF785FB5846B5
:101D2000FEF7AAFA641C0A2CF5DB35606420FEF786
:101D3000A3FAC9E7022157465046FEF775FB4FF458
:101D4000FA60FEF799FA02213846FEF76DFB002093
:101D50004F46215C3954401C1428FADB0021084608
:101D600006AC3A185378528852BA63F31F423B5C70
:101D7000001D42EA036244F82120491C0529F0DBDA
:101D8000052221460748FEF70FFA14215FF01802DA
:101D900020FA02F37B54491C083A1829F8DBC4E7FF
:101DA000003002400400002000380140A000002064
:101DB00000540040A08601000000024000040240E0
:101DC000030406080C10182030000000000000007A
:101DD00000010203040607080900000000010203D5
:101DE00004000000041E0008000000201C00000089
:101DF0001E1C0008201E00081C000020CC0400004F
:101E00002E1C000800000000000000000000000080
:101E100010000000010000000000000068FF1F002B
:0400000508000125C9
:00000001FF
