:020000040800F2
:10000000B804002035010008BF120008FB0F0008EB
:10001000BD120008C1010008BD1500080000000065
:10002000000000000000000000000000C3120008F3
:10003000C301000800000000C1120008C51200083A
:100040004F0100084F0100084F0100084F01000850
:100050004F0100084F0100084F0100084F01000840
:100060004F0100084F0100084F0100084F01000830
:100070004F0100084F0100084F0100084F01000820
:100080004F0100084F0100084F0100080000000068
:100090000000000000000000000000004F01000808
:1000A0004F0100084F0100084F0100084F010008F0
:1000B0004F0100084F0100084F0100084F010008E0
:1000C0004F0100084F0100084F0100084F010008D0
:1000D0004F0100084F010008B11500084F0100084A
:1000E0004F0100084F0100084F0100080000000008
:1000F0000000000000000000000000000000000000
:1001000000000000000000000000000000000000EF
:1001100000000000000000004F0100084F0100082F
:10012000DFF80CD000F03AF800480047FD15000851
:10013000B80400200648804706480047FEE7FEE76F
:10014000FEE7FEE7FEE7FEE7FEE7FEE7FEE7FEE787
:100150000D13000821010008D2B201E000F8012BC4
:10016000491EFBD270470022F6E710B513460A4637
:1001700004461946FFF7F0FF204610BD30B505468E
:100180000020034600E05B1C934205D2EC5CC85C97
:10019000201A01D1002CF6D130BD0000064C074DCD
:1001A00006E0E06840F0010394E807009847103447
:1001B000AC42F6D3FFF7B8FFF41600081417000896
:1001C000FEE7704710B590F821100024022903D0F3
:1001D0000421816301243DE001680A6822F00E02D7
:1001E0000A6001680A6822F001020A601A4A01687E
:1001F000914201D1012121E0174A1432914201D1EB
:1002000010211BE0144A2832914201D1891515E0D2
:10021000114A3C32914201D189140FE00E4A50320A
:10022000914202D14FF4803108E00B4A643291428E
:1002300002D14FF4801101E04FF08071064A083A74
:100240005160012180F82110002180F82010416BBD
:1002500001B18847204610BD0800024070B5044631
:1002600000F00AF90546601C02D0044800780444F6
:1002700000F002F9401BA042FAD370BD0400002038
:100280002DE9F84FDFF8B891002409F1040A0AF1CA
:10029000040B23460F270BF1040EC9E00125A540EE
:1002A0002A40AA427DD1674ED1F804C0ACEB0608C3
:1002B000B44532D014DCBCF1030F3AD009DCBCF1F8
:1002C000000F2AD0BCF1010F1CD0BCF1020F31D1BC
:1002D0001DE0BCF1110F17D0BCF1120F2AD119E0AB
:1002E000B8F5881F19D006DCB8F5803F15D0B8F5F1
:1002F000801F1FD111E0B8F5001F0ED0B8F5041F04
:1003000018D10AE0CB6815E0CB681B1D12E0CB6862
:1003100008330FE0CB680C330CE08B682BB1012B5A
:100320004FF0080303D0456104E0042302E00561B7
:1003300000E00023FF2A01D8064601E000F1040690
:100340004FEA840501D9A5F12005D6F8008007FA07
:1003500005FC28EA0C0803FA05F548EA0508C6F882
:1003600000804D68ED0062D5374DAE6946F001065C
:10037000AE61AD6924F0030605F001050095334D2B
:1003800006EB050CDCF80850A607360F07FA06F84E
:1003900025EA0805DFF8B880404503D14FF0000892
:1003A00017E044E0DFF8AC80404502D14FF001088F
:1003B0000FE0DFF8A480404502D14FF0020808E0CA
:1003C000DFF89880404502D14FF0030801E04FF07C
:1003D000040808FA06F848EA0508CCF808804D68D1
:1003E000D9F80060ED034D4601D5164300E0964371
:1003F0002E604D68DAF80060AD03554601D516430E
:1004000000E096432E604D68DBF80060ED025D462B
:1004100001D5164300E096432E604D68DEF800607B
:10042000AD02754601D5164300E096432E60641C6C
:100430000D682A46E5407FF431AFBDE8F88F000033
:1004400000040140000011100010024000000140B3
:1004500000080140000C0140001001400014014060
:10046000C2680A4201D041617047016170470AB118
:10047000016170470904FBE701488068704700008C
:100480000400002070B504001BD094F83D00002546
:1004900020B984F83C50204600F044F9242084F828
:1004A0003D002068016821F00101016000F06EFA52
:1004B0004D4A6168914201D84C4900E04C4988425C
:1004C00001D2012070BD4B492368B0FBF1F15E6899
:1004D00026F03F060E435E606368934206D94FF4F0
:1004E000967359434FF47A73B1FBF3F12368491CB7
:1004F0001E6A26F03F06314319626168914210D8A6
:100500004900401EB0FBF1F2521CC2F30B02042A58
:1005100001D2042022E0B0FBF1F0401CC0F30B003C
:100520001CE0A368F3B301EBC10202EB0116421E0B
:10053000B2FBF6F2521C42F48042120549D093B34A
:1005400001EBC10202EB0111401EB0FBF1F0401CB7
:10055000C0F30B0040F4804040F400402168CA69B9
:100560004CF6FF739A431043C861D4E9070108436E
:1005700021680A6822F0C00210430860D4E9030130
:1005800001432068826848F2FF339A431143816037
:10059000D4E9050108432168CA6822F0FF0210432C
:1005A000C86001E00EE016E02068016841F001013A
:1005B00001602564202084F83D00256384F83E50C6
:1005C000002070BD01EB4106421EB2FBF6F2521C48
:1005D000B3E70120C2E701EB4101401EB0FBF1F09F
:1005E000401CC0F30B00B7E7A086010080841E000A
:1005F00000093D0040420F002DE9F84F1F4690468C
:100600008A460446DDF82890FFF736FF054694F841
:100610003D0020287FD11923012240492046009522
:1006200000F06EFD002876D194F83C00012872D0CD
:10063000012084F83C0020680168C90703D10168E3
:1006400041F0010101602068016821F4006101604E
:10065000212084F83D00102084F83E000026266406
:10066000C4F824806785608D20852D48E0622B4684
:100670004A465146204600F0D9FC90B920684169AD
:100680008069009036E02A464946204600F0B7FDD2
:1006900050B1206C042804D12068016841F4007135
:1006A00001600120BDE8F88F606A21680078086168
:1006B000606A401C6062618D491E6185218D491E02
:1006C00089B2218522685369DB435B070BD451B1A2
:1006D00000781061606A401C6062608D401E608519
:1006E000208D401E20852A464946204600F0E2FC27
:1006F0000028CED1208D0028C5D154F83D0B0168CB
:1007000041F400710160202004F81E09E677667745
:100710000020C7E7FFE70220C4E700000200100046
:100720000000FFFF10B586B00021009101910291F9
:10073000039100680F4988421AD10F4CA06940F01C
:100740000800A061A069694600F008000490C0207C
:10075000009012200190032003900848FFF790FDBD
:10076000E06940F40010E061E06900F400100490DA
:1007700006B010BD0054004000100240000C0140C3
:1007800002488168027811448160704704000020AB
:1007900010B5032000F074F8002000F005F800F018
:1007A00023F8002010BD000070B50D4D04464FF435
:1007B0007A712878B1FBF0F00A490968B1FBF0F0D2
:1007C00000F0D2FA48B9102C07D200222146501E60
:1007D00000F036F800206C6070BD012070BD000094
:1007E00004000020100000200C4808B5816941F089
:1007F00001018161816901F001010091C16941F04C
:100800008051C161C06900F0805000900448416887
:1008100021F0E06141F00071416008BD001002402C
:1008200000000140002809DB00F01F020121914077
:100830004009800000F1E020C0F80011704700007E
:10084000F0B40E4B1B680C46C3F30223C3F107053B
:10085000042D00D90425191D072901D2002300E029
:10086000DB1E012606FA05F1491E214099409E40F3
:10087000761E16403143F0BC00F0A1BE0CED00E046
:10088000064900F0070208684FF6FF03184040EAE7
:100890000220034A10430860704700000CED00E09E
:1008A0000000FA052DE9F041050027D02868334CF7
:1008B000810712D5400703D5606840F4E0606060AE
:1008C0002878000703D5606840F460506060606875
:1008D000A96820F0F000084360602878C00729D09C
:1008E0006868012804D02168022804D0890703E041
:1008F0002168890300E08901002902DB0120BDE8AD
:10090000F081616821F0030101436160FFF7B4FDEC
:10091000064641F2883706E0FFF7AEFD801BB8427D
:1009200001D90320EBE76068696800F00C00B0EBC8
:10093000810FF1D12878400705D56068E96820F477
:10094000E060084360602878000706D56068296980
:1009500020F4605040EAC100606000F037F8616840
:10096000074AC1F30311515CC840064908600648B4
:100970000068FFF719FF0020C1E7000000100240E7
:10098000DC1600081000002008000020044805497B
:1009900000684968044AC1F30221515CC8407047AD
:1009A0001000002000100240EC1600080448054921
:1009B00000684968044AC1F3C221515CC8407047CD
:1009C0001000002000100240EC16000813A188B0AF
:1009D0000FC98DE80F0015A10DF1100C0FC98CE89F
:1009E0000F00164A5168164801F00C03042B10D072
:1009F000082B0ED1C1F38343C9031DF803000AD5A8
:100A0000D16A04AA01F00F01515C0D4A5043B0FBBA
:100A1000F1F008B070470B494843FAE702030405B8
:100A2000060708090A0B0C0D0E0F10100102030433
:100A300005060708090A0B0C0D0E0F1000100240E6
:100A400000127A0000093D002DE9F84F040070D033
:100A50002078C04DC00749D06868C0F381000128E4
:100A600007D06868C0F38100022809D16868C00314
:100A700006D52868800339D560680028E7D035E0BE
:100A80006068B0F5803F0BD010B1B0F5A02F11D049
:100A9000286820F480302860286820F4802002E054
:100AA000286840F480302860606890B1FFF7E4FC6B
:100AB00006460AE0286840F480202860F0E700BF7E
:100AC000FFF7DAFC801B642873D828688003F7D509
:100AD0000CE0FFF7D1FC064605E000BFFFF7CCFCB9
:100AE000801B6428F0D828688003F7D420789A4EB9
:100AF00080074FF001094FF0000839D5686810F001
:100B00000C0F07D06868C0F38100022809D168681B
:100B1000C00306D42868800714D52069012808D1AD
:100B200010E02069B0B1C6F80090FFF7A5FC0746B9
:100B300005E00AE1FFF7A0FCC01B0228C4D8286822
:100B40008007F7D52868616920F0F80040EAC10005
:100B500028600DE0C6F80080FFF78EFC074604E031
:100B6000FFF78AFCC01B022823D828688007F7D427
:100B7000207800072CD57948A169D9B1C0F8009038
:100B8000FFF77AFC074604E0FFF776FCC01B02285B
:100B90000FD8686A8007F7D571484FF4FA5100689A
:100BA000B0FBF1F0009000BF0098411E0091FAD216
:100BB0000EE080E0C0F80080FFF75EFC074604E02E
:100BC000FFF75AFCC01B022875D8686A8007F7D463
:100BD0002078400760D5E8690027C00008D4E8699C
:100BE00040F08050E861E869012700F080500090F3
:100BF0005C480168C90513D40168834641F48071DB
:100C00000160FFF739FC824606E000BFFFF734FCC5
:100C1000A0EB0A0064284ED8DBF80000C005F5D52B
:100C2000E06801280AD008B1052813D0286A20F00E
:100C300001002862286A20F0040002E0286A40F0DF
:100C400001002862E06841F2883B98B1FFF714FC8C
:100C500082460BE0286A40F004002862EEE700BFFD
:100C6000FFF70AFCA0EB0A0159455AD8286A800709
:100C7000F6D50CE0FFF700FC824605E0FFF7FCFB31
:100C8000A0EB0A0159454CD8286A8007F6D41FB159
:100C9000E86920F08050E861E06988B36968C1F3D1
:100CA0008101022944D00228C6F8608004D0FFF7F1
:100CB000E3FB044638E034E0FFF7DEFB074604E0E0
:100CC000FFF7DAFBC01B02282BD828688001F7D475
:100CD000206AB0F5803F05D1E86AA16820F00F00D6
:100CE0000843E862D4E908010843696821F47411F3
:100CF00008436860C6F86090FFF7BEFB044606E054
:100D000025E000BFFFF7B8FB001B022809D82868C0
:100D10008001F7D51BE000BFFFF7AEFB001B0228E8
:100D200002D90320BDE8F88F28688001F4D40EE0D2
:100D30000128F7D06868226A00F48031914204D11A
:100D4000616A00F47010884201D00120EAE70020B7
:100D5000E8E70000001002400000424280044242E6
:100D6000100000200070004010B5401EB0F1807FE0
:100D700001D3012010BD4FF0E02460610F21601706
:100D800000F01DFC0020A06107202061002010BDA4
:100D90007047000070B5026804461068D168536956
:100DA00010F00F0F50D003F0010501F49076354399
:100DB0005DD0C20705D0CA0503D5E26B42F001023F
:100DC000E263420705D5DA0703D0E26B42F0020284
:100DD000E263820705D5DA0703D0E26B42F0040232
:100DE000E263020705D5DA0703D0E26B42F008029E
:100DF000E263E26B002A33D0800604D5880602D570
:100E0000204600F0BFFA20684069E16BC0F3801013
:100E1000090700D428B3204600F0A6FA20684169EB
:100E200049061AD5416921F040014161606BA0B1CA
:100E30001B494163606BFFF7C5F9002810D0606B58
:100E4000416BBDE870400847830610D58B060ED570
:100E50002046BDE8704000F095BA2046FFF798FFA5
:100E600070BD2046FFF794FF0020E06370BD0306CD
:100E700006D50B0604D52046BDE8704000F066BBE1
:100E80004006F3D54806F1D5D168204621F040014F
:100E9000D160202184F8391000F0AEF870BD000058
:100EA0005913000870B5040004D094F839000025E7
:100EB00010B106E0012070BD84F83850204600F0E3
:100EC00023F8242084F839002068C16821F40051F7
:100ED000C160204600F0A2FA2068016921F4904127
:100EE00001612068416921F02A0141612068C168DF
:100EF00041F40051C160E563202084F8390084F892
:100F00003A00002070BD000030B585B00024009488
:100F10000194029403940068184988422BD1184820
:100F2000C16941F40031C161C16901F4003104912A
:100F3000816941F0040181618069124D00F0040073
:100F40000490042000900220019003200390694641
:100F50002846FFF795F90820CDE9000469462846A0
:100F60000294FFF78DF9002211462620FFF768FC56
:100F70002620FFF757FC05B030BD000000440040BC
:100F8000001002400008014090F83A30202B22D196
:100F9000F9B1F2B190F83830012B1CD08162828512
:100FA000C2850021C163222280F83A2080F83810DF
:100FB0000168CA6842F48072CA6001684A6942F0F6
:100FC00001024A610068C16841F02001C16000204F
:100FD0007047012070470220704700000449884292
:100FE00005D1C88D002802D1024901200860704750
:100FF00078000020000000207047FEE701684A6981
:10100000D24352050FD46FF480624A61002140F848
:10101000301F202242738173026942F00402026190
:10102000017301207047002070470000F8B50446A6
:10103000C06A1E460D461746082807D0012805D06D
:1010400010F5803F02D0206B122804D1206801687F
:1010500041F480710160134600224FF001112046D7
:10106000009600F04DF808BB2069B0F5804F0ED017
:101070000620216800EAD51040F0F00008613346F0
:101080003A460B49204600F06FF878B902E005F0C7
:10109000FE0000E0E8B221680861054933463A469F
:1010A000891F204600F060F8002800D00120F8BD1C
:1010B0000800010070B516460D4604460DE02046B6
:1010C000FFF79CFF08B1012070BD681C05D0FFF739
:1010D000D3F9801BA84207D835B120684069C043C6
:1010E0004007ECD4002070BD002044F8300F2021D0
:1010F0006173A073216941F0200121612073E2E74F
:101100002DE9F0471E4690460D460446C1F30747B9
:10111000DDF8209008E0701C06D0FFF7ADF9A0EBD9
:101120000900B0420FD876B12068012F18D080692D
:1011300025EA00000004000C14D000214145EAD04B
:101140000020BDE8F087002044F8300F20216173B3
:10115000A073216941F02001216120730120F0E793
:101160004069E5E70121E9E72DE9F0479A46914614
:101170000E46044600254FF02008C1F3074725E03E
:1011800020684069C043400514D42068016841F4D8
:101190000071016021686FF480604861256384F804
:1011A0003D8084F83E50206C40F00400206484F8B8
:1011B0003C501FE0B9F1FF3F08D0FFF75DF9A0EB0D
:1011C0000A0149450CD8B9F1000F09D02068012F58
:1011D00013D0806926EA00000004000C0BD0CFE792
:1011E00044F8305F84F80D80A573206940F020003A
:1011F000206125730120BDE8F0874069EAE770B5FA
:1012000016460D4604460DE02046FFF7F7FE08B1EE
:10121000012070BD681C05D0FFF72EF9801BA84285
:1012200007D835B120684069C0430006ECD40020DF
:1012300070BD002044F8300F20216173A073216934
:1012400041F0200121612073E2E7000070B586B013
:10125000002418480094019402940394816941F099
:1012600004018161816901F004010491816941F007
:1012700010018161816901F010010491816941F0DF
:101280000801816180690C4E00F008004FF4007580
:101290000490002229463046FFF7E9F80120009526
:1012A000CDE901040220039069463046FEF7E8FFCD
:1012B00006B070BD0010024000100140FEE770470C
:1012C00070477047FFF75CBA10B590B028216846A8
:1012D000FEF749FF14210AA8FEF745FF02200090FF
:1012E0000120049010200024059007946846FFF721
:1012F000ABFB0F20CDE90A040C940D9400210AA841
:101300000E94FFF7CFFA10B010BD00000E48016830
:1013100041F00101016041680C4A114041600168DF
:101320000B4A11400160016821F48021016041688D
:1013300021F4FE0141604FF41F0181600021C16270
:101340000449C00308607047001002400000FFF825
:10135000FFFFF6FE08ED00E010B5406A0021C185F0
:10136000C184FFF715FD10BD0168CA6822F49072B0
:10137000CA6001684A6922F001024A61202180F8AE
:101380003A10704710B590F83A10222901D0022087
:1013900010BD8168B1F5805F11D001690029016835
:1013A0001FD0496801F07F03816A4A1C82620B707A
:1013B000C18D491E0904090CC18518D02BE00269B2
:1013C000816A002A0268526805D0D2B20A80816A16
:1013D000491C8162ECE7C2F308020A80816A891C19
:1013E000F7E74A68816A4B1C83620A70E0E701688C
:1013F000CA6822F02002CA600168CA6822F48072BA
:10140000CA6001684A6922F001024A61202180F81D
:101410003A10FFF7E3FD002010BD00002DE9F04178
:10142000044600680169E26821F4405111430161FA
:101430002169A068E2690843616911432268084391
:10144000D16849F20C6399430143D1602068416936
:10145000A26921F4407111434161E169642532269A
:10146000B1F5004F3848216804D081423DD1FFF7E3
:101470009DFA3CE0814202D1FFF798FA01E0FFF7C4
:1014800085FA00EBC00101EB001160686FF0180CE9
:101490004000B1FBF0F3B3FBF5F3B1FBF0F7B1FBA8
:1014A000F0F203FB0CF307EB830306EBC303B2FB81
:1014B000F5F2B3FBF5F3120103F0F80302EB43027C
:1014C000B1FBF0F3B1FBF0F0B0FBF5F000FB0CF07A
:1014D00003EB800006EBC000B0FBF5F000F0070066
:1014E000216810448860BDE8F081FFF74FFA00EBF7
:1014F000C00101EB001160686FF018078000B1FBBC
:10150000F0F2B2FBF5F2B1FBF0F37A4303EB8202A7
:10151000B1FBF0F306EB0212B2FBF5F2B3FBF5F30D
:1015200002F0F00202EB0312B1FBF0F3B1FBF0F0BA
:10153000B0FBF5F0784303EB800006EB0010B0FB46
:10154000F5F000F00F00CBE70038014090F83910BB
:10155000212901D0022070478168B1F5805F016ABE
:101560000BD04A1C0262026809785160C18C491E86
:101570000904090CC1840ED017E009880268C1F380
:101580000801516001690029016A02D0491C016209
:10159000ECE7891CFBE70168CA6822F08002CA6098
:1015A0000068C16841F04001C16000207047000040
:1015B0000148FFF7EFBB000078000020FEE70907B5
:1015C000090E002804DB00F1E02080F800147047C9
:1015D00000F00F0000F1E02080F8141D704702E0D9
:1015E00008C8121F08C1002AFAD1704770470020AE
:1015F00001E001C1121F002AFBD1704708B5FFF7B7
:10160000C7F8FFF761FEFFF721FE2B4829490024A8
:1016100001604FF4E131C0E901140C21C460C0E95C
:1016200004418461C461FFF73DFC234823495438D9
:1016300001602349C0E901144FF48041C0E903412E
:1016400044618461C4610462FEF71CFFDFF87480AA
:101650001D4D4FF4FA6940F2DC564FF400771649FD
:101660000E2264391448FFF78FFC286801281CD12A
:1016700011480E2215A16438FEF780FDA8B939463D
:101680004046FEF7EDFE4846FEF7E8FD0A4A0E2307
:10169000643A022102F110000096FEF7ADFF002827
:1016A000F4D139464046FEF7DBFE64202C60FEF79D
:1016B000D5FDD4E7004400407800002000540040ED
:1016C000A0860100001001400000002048454C4C5D
:1016D0004F20574F524C44210D0A000000000000DB
:1016E00000000000010203040607080900000000D2
:1016F0000102030414170008000000201400000079
:10170000DE1500082817000814000020A4040000BB
:10171000EE150008000000000100000010000000AD
:08172000000000000024F400A9
:0400000508000121CD
:00000001FF
